{
  "contractName": "FIFARumble",
  "abi": [
    {
      "constant": true,
      "inputs": [],
      "name": "second",
      "outputs": [
        {
          "name": "",
          "type": "address"
        }
      ],
      "payable": false,
      "stateMutability": "view",
      "type": "function"
    },
    {
      "constant": true,
      "inputs": [],
      "name": "third",
      "outputs": [
        {
          "name": "",
          "type": "address"
        }
      ],
      "payable": false,
      "stateMutability": "view",
      "type": "function"
    },
    {
      "constant": true,
      "inputs": [],
      "name": "gameMaster",
      "outputs": [
        {
          "name": "",
          "type": "address"
        }
      ],
      "payable": false,
      "stateMutability": "view",
      "type": "function"
    },
    {
      "constant": true,
      "inputs": [],
      "name": "winner",
      "outputs": [
        {
          "name": "",
          "type": "address"
        }
      ],
      "payable": false,
      "stateMutability": "view",
      "type": "function"
    },
    {
      "inputs": [],
      "payable": false,
      "stateMutability": "nonpayable",
      "type": "constructor"
    },
    {
      "payable": false,
      "stateMutability": "nonpayable",
      "type": "fallback"
    },
    {
      "anonymous": false,
      "inputs": [],
      "name": "newRegister",
      "type": "event"
    },
    {
      "anonymous": false,
      "inputs": [],
      "name": "Start",
      "type": "event"
    },
    {
      "anonymous": false,
      "inputs": [
        {
          "components": [
            {
              "name": "p1ID",
              "type": "uint256"
            },
            {
              "name": "p2ID",
              "type": "uint256"
            },
            {
              "name": "p1Goals",
              "type": "uint256"
            },
            {
              "name": "p2Goals",
              "type": "uint256"
            },
            {
              "name": "isValue",
              "type": "bool"
            }
          ],
          "indexed": false,
          "name": "",
          "type": "tuple"
        }
      ],
      "name": "MatchDecided",
      "type": "event"
    },
    {
      "anonymous": false,
      "inputs": [
        {
          "indexed": false,
          "name": "",
          "type": "uint256"
        },
        {
          "indexed": false,
          "name": "",
          "type": "uint256"
        },
        {
          "indexed": false,
          "name": "",
          "type": "uint256"
        }
      ],
      "name": "End",
      "type": "event"
    },
    {
      "constant": false,
      "inputs": [
        {
          "name": "_fee",
          "type": "uint256"
        },
        {
          "name": "_maxPlayers",
          "type": "uint256"
        },
        {
          "name": "_tournamentName",
          "type": "string"
        }
      ],
      "name": "createTournament",
      "outputs": [],
      "payable": false,
      "stateMutability": "nonpayable",
      "type": "function"
    },
    {
      "constant": false,
      "inputs": [],
      "name": "startTournament",
      "outputs": [],
      "payable": false,
      "stateMutability": "nonpayable",
      "type": "function"
    },
    {
      "constant": true,
      "inputs": [],
      "name": "getTournament",
      "outputs": [
        {
          "name": "",
          "type": "string"
        },
        {
          "name": "",
          "type": "uint256"
        },
        {
          "name": "",
          "type": "uint256"
        },
        {
          "name": "",
          "type": "uint256"
        },
        {
          "name": "",
          "type": "bool"
        },
        {
          "name": "",
          "type": "bool"
        }
      ],
      "payable": false,
      "stateMutability": "view",
      "type": "function"
    },
    {
      "constant": false,
      "inputs": [
        {
          "name": "_w",
          "type": "address"
        },
        {
          "name": "_s",
          "type": "address"
        },
        {
          "name": "_t",
          "type": "address"
        }
      ],
      "name": "endTournament",
      "outputs": [],
      "payable": false,
      "stateMutability": "nonpayable",
      "type": "function"
    },
    {
      "constant": true,
      "inputs": [],
      "name": "getRoundRobin",
      "outputs": [
        {
          "name": "gamePlan",
          "type": "uint256[36][3]"
        }
      ],
      "payable": false,
      "stateMutability": "view",
      "type": "function"
    },
    {
      "constant": false,
      "inputs": [
        {
          "name": "_matchID",
          "type": "uint256"
        },
        {
          "name": "_p1",
          "type": "uint256"
        },
        {
          "name": "_p2",
          "type": "uint256"
        },
        {
          "name": "_p1Goals",
          "type": "uint256"
        },
        {
          "name": "_p2Goals",
          "type": "uint256"
        }
      ],
      "name": "decideMatch",
      "outputs": [],
      "payable": false,
      "stateMutability": "nonpayable",
      "type": "function"
    },
    {
      "constant": false,
      "inputs": [
        {
          "name": "_playerName",
          "type": "string"
        }
      ],
      "name": "register",
      "outputs": [],
      "payable": true,
      "stateMutability": "payable",
      "type": "function"
    },
    {
      "constant": true,
      "inputs": [],
      "name": "getPlayerCount",
      "outputs": [
        {
          "name": "count",
          "type": "uint256"
        }
      ],
      "payable": false,
      "stateMutability": "view",
      "type": "function"
    },
    {
      "constant": true,
      "inputs": [
        {
          "name": "_playerAddress",
          "type": "address"
        }
      ],
      "name": "getPlayer",
      "outputs": [
        {
          "name": "pID",
          "type": "uint256"
        },
        {
          "name": "name",
          "type": "string"
        },
        {
          "name": "points",
          "type": "uint256"
        },
        {
          "name": "goals",
          "type": "uint256"
        },
        {
          "name": "counterGoals",
          "type": "uint256"
        }
      ],
      "payable": false,
      "stateMutability": "view",
      "type": "function"
    },
    {
      "constant": true,
      "inputs": [
        {
          "name": "_playerID",
          "type": "uint256"
        }
      ],
      "name": "getPlayerByID",
      "outputs": [
        {
          "name": "addressP",
          "type": "address"
        },
        {
          "name": "name",
          "type": "string"
        },
        {
          "name": "points",
          "type": "uint256"
        },
        {
          "name": "goals",
          "type": "uint256"
        },
        {
          "name": "counterGoals",
          "type": "uint256"
        },
        {
          "name": "PlayerID",
          "type": "uint256"
        }
      ],
      "payable": false,
      "stateMutability": "view",
      "type": "function"
    },
    {
      "constant": true,
      "inputs": [
        {
          "name": "_matchID",
          "type": "uint256"
        }
      ],
      "name": "getEncounter",
      "outputs": [
        {
          "name": "p1ID",
          "type": "uint256"
        },
        {
          "name": "p2ID",
          "type": "uint256"
        },
        {
          "name": "p1Goals",
          "type": "uint256"
        },
        {
          "name": "p2Goals",
          "type": "uint256"
        }
      ],
      "payable": false,
      "stateMutability": "view",
      "type": "function"
    },
    {
      "constant": false,
      "inputs": [],
      "name": "kill",
      "outputs": [],
      "payable": false,
      "stateMutability": "nonpayable",
      "type": "function"
    }
  ],
  "bytecode": "0x6060604052341561000f57600080fd5b33600360026101000a81548173ffffffffffffffffffffffffffffffffffffffff021916908373ffffffffffffffffffffffffffffffffffffffff160217905550611af38061005f6000396000f3006060604052600436106100e6576000357c0100000000000000000000000000000000000000000000000000000000900463ffffffff168063101f93e8146100f65780632f723f051461016d57806341c0e1b5146101e157806342026081146101f65780635a8ac02d146102425780635c12cd4b146102975780637270765b1461036557806373efabaa14610450578063a6dc677114610497578063b3e88185146104ec578063bdf84ae71461052c578063bf559d1114610581578063c2e5220614610596578063dfbf53ae146105bf578063e76c293e14610614578063f2c298be146106cd575b34156100f157600080fd5b600080fd5b341561010157600080fd5b61016b600480803573ffffffffffffffffffffffffffffffffffffffff1690602001909190803573ffffffffffffffffffffffffffffffffffffffff1690602001909190803573ffffffffffffffffffffffffffffffffffffffff169060200190919050506106f0565b005b341561017857600080fd5b6101806109db565b604051808260036000925b818410156101d15782846020020151602460200280838360005b838110156101c05780820151818401526020810190506101a5565b50505050905001926001019261018b565b9250505091505060405180910390f35b34156101ec57600080fd5b6101f4610b94565b005b341561020157600080fd5b6102176004808035906020019091905050610c27565b6040518085815260200184815260200183815260200182815260200194505050505060405180910390f35b341561024d57600080fd5b610255610c98565b604051808273ffffffffffffffffffffffffffffffffffffffff1673ffffffffffffffffffffffffffffffffffffffff16815260200191505060405180910390f35b34156102a257600080fd5b6102ce600480803573ffffffffffffffffffffffffffffffffffffffff16906020019091905050610cbe565b6040518086815260200180602001858152602001848152602001838152602001828103825286818151815260200191508051906020019080838360005b8381101561032657808201518184015260208101905061030b565b50505050905090810190601f1680156103535780820380516001836020036101000a031916815260200191505b50965050505050505060405180910390f35b341561037057600080fd5b6103866004808035906020019091905050610eca565b604051808773ffffffffffffffffffffffffffffffffffffffff1673ffffffffffffffffffffffffffffffffffffffff16815260200180602001868152602001858152602001848152602001838152602001828103825287818151815260200191508051906020019080838360005b838110156104105780820151818401526020810190506103f5565b50505050905090810190601f16801561043d5780820380516001836020036101000a031916815260200191505b5097505050505050505060405180910390f35b341561045b57600080fd5b61049560048080359060200190919080359060200190919080359060200190919080359060200190919080359060200190919050506110ce565b005b34156104a257600080fd5b6104aa6111f3565b604051808273ffffffffffffffffffffffffffffffffffffffff1673ffffffffffffffffffffffffffffffffffffffff16815260200191505060405180910390f35b34156104f757600080fd5b61052a60048080359060200190919080359060200190919080359060200190820180359060200191909192905050611219565b005b341561053757600080fd5b61053f6112e2565b604051808273ffffffffffffffffffffffffffffffffffffffff1673ffffffffffffffffffffffffffffffffffffffff16815260200191505060405180910390f35b341561058c57600080fd5b610594611308565b005b34156105a157600080fd5b6105a96113c8565b6040518082815260200191505060405180910390f35b34156105ca57600080fd5b6105d26113d5565b604051808273ffffffffffffffffffffffffffffffffffffffff1673ffffffffffffffffffffffffffffffffffffffff16815260200191505060405180910390f35b341561061f57600080fd5b6106276113fb565b60405180806020018781526020018681526020018581526020018415151515815260200183151515158152602001828103825288818151815260200191508051906020019080838360005b8381101561068d578082015181840152602081019050610672565b50505050905090810190601f1680156106ba5780820380516001836020036101000a031916815260200191505b5097505050505050505060405180910390f35b6106ee600480803590602001908201803590602001919091929050506114f0565b005b600080600080600360029054906101000a900473ffffffffffffffffffffffffffffffffffffffff1673ffffffffffffffffffffffffffffffffffffffff163373ffffffffffffffffffffffffffffffffffffffff1614151561075257600080fd5b86600460006101000a81548173ffffffffffffffffffffffffffffffffffffffff021916908373ffffffffffffffffffffffffffffffffffffffff16021790555085600560006101000a81548173ffffffffffffffffffffffffffffffffffffffff021916908373ffffffffffffffffffffffffffffffffffffffff16021790555084600660006101000a81548173ffffffffffffffffffffffffffffffffffffffff021916908373ffffffffffffffffffffffffffffffffffffffff1602179055503073ffffffffffffffffffffffffffffffffffffffff163193506064603c850281151561083e57fe5b049250600460009054906101000a900473ffffffffffffffffffffffffffffffffffffffff1673ffffffffffffffffffffffffffffffffffffffff166108fc849081150290604051600060405180830381858888f1935050505015156108a357600080fd5b6064601e85028115156108b257fe5b049150600560009054906101000a900473ffffffffffffffffffffffffffffffffffffffff1673ffffffffffffffffffffffffffffffffffffffff166108fc839081150290604051600060405180830381858888f19350505050151561091757600080fd5b6064600a850281151561092657fe5b049050600660009054906101000a900473ffffffffffffffffffffffffffffffffffffffff1673ffffffffffffffffffffffffffffffffffffffff166108fc829081150290604051600060405180830381858888f19350505050151561098b57600080fd5b7ff3c036e4a7fb63b29e6e18c536a312f7812592a7d677739d8d071c2ed81c9a1d83838360405180848152602001838152602001828152602001935050505060405180910390a150505050505050565b6109e361190a565b600080600080600080600360029054906101000a900473ffffffffffffffffffffffffffffffffffffffff1673ffffffffffffffffffffffffffffffffffffffff163373ffffffffffffffffffffffffffffffffffffffff16141515610a4857600080fd5b610a506116c9565b9550610a5a6113c8565b945060019350600190505b8581111515610b885760008582811515610a7b57fe5b061415610a8a57849250610a99565b8481811515610a9557fe5b0692505b600085858301811515610aa857fe5b061415610ab757849150610ac8565b84848201811515610ac457fe5b0691505b80876000600381101515610ad857fe5b602002015160018303602481101515610aed57fe5b60200201818152505082876001600381101515610b0657fe5b602002015160018303602481101515610b1b57fe5b60200201818152505081876002600381101515610b3457fe5b602002015160018303602481101515610b4957fe5b60200201818152505060008582811515610b5f57fe5b06148015610b6d5750600181115b15610b7b5783806001019450505b8080600101915050610a65565b86965050505050505090565b600360029054906101000a900473ffffffffffffffffffffffffffffffffffffffff1673ffffffffffffffffffffffffffffffffffffffff163373ffffffffffffffffffffffffffffffffffffffff161415610c2557600360029054906101000a900473ffffffffffffffffffffffffffffffffffffffff1673ffffffffffffffffffffffffffffffffffffffff16ff5b565b600080600080600760008681526020019081526020016000206000015460076000878152602001908152602001600020600101546007600088815260200190815260200160002060020154600760008981526020019081526020016000206003015493509350935093509193509193565b600560009054906101000a900473ffffffffffffffffffffffffffffffffffffffff1681565b6000610cc8611939565b6000806000600860008773ffffffffffffffffffffffffffffffffffffffff1673ffffffffffffffffffffffffffffffffffffffff16815260200190815260200160002060000154600860008873ffffffffffffffffffffffffffffffffffffffff1673ffffffffffffffffffffffffffffffffffffffff168152602001908152602001600020600101600860008973ffffffffffffffffffffffffffffffffffffffff1673ffffffffffffffffffffffffffffffffffffffff16815260200190815260200160002060020154600860008a73ffffffffffffffffffffffffffffffffffffffff1673ffffffffffffffffffffffffffffffffffffffff16815260200190815260200160002060030154600860008b73ffffffffffffffffffffffffffffffffffffffff1673ffffffffffffffffffffffffffffffffffffffff16815260200190815260200160002060040154838054600181600116156101000203166002900480601f016020809104026020016040519081016040528092919081815260200182805460018160011615610100020316600290048015610eb05780601f10610e8557610100808354040283529160200191610eb0565b820191906000526020600020905b815481529060010190602001808311610e9357829003601f168201915b505050505093509450945094509450945091939590929450565b6000610ed4611939565b6000806000806009600088815260200190815260200160002060009054906101000a900473ffffffffffffffffffffffffffffffffffffffff16955085600860008873ffffffffffffffffffffffffffffffffffffffff1673ffffffffffffffffffffffffffffffffffffffff168152602001908152602001600020600101600860008973ffffffffffffffffffffffffffffffffffffffff1673ffffffffffffffffffffffffffffffffffffffff16815260200190815260200160002060020154600860008a73ffffffffffffffffffffffffffffffffffffffff1673ffffffffffffffffffffffffffffffffffffffff16815260200190815260200160002060030154600860008b73ffffffffffffffffffffffffffffffffffffffff1673ffffffffffffffffffffffffffffffffffffffff168152602001908152602001600020600401548b848054600181600116156101000203166002900480601f0160208091040260200160405190810160405280929190818152602001828054600181600116156101000203166002900480156110b25780601f10611087576101008083540402835291602001916110b2565b820191906000526020600020905b81548152906001019060200180831161109557829003601f168201915b5050505050945095509550955095509550955091939550919395565b6000806000600360029054906101000a900473ffffffffffffffffffffffffffffffffffffffff1673ffffffffffffffffffffffffffffffffffffffff163373ffffffffffffffffffffffffffffffffffffffff1614151561112f57600080fd5b600360019054906101000a900460ff16156111e95760076000898152602001908152602001600020925086836000018190555085836001018190555084836002018190555083836003018190555061118687610eca565b5050505050915061119686610eca565b50505050509050838511156111c4576111b28260038787611704565b6111bf8160008688611704565b6111e8565b838510156111e7576111d98160038688611704565b6111e68260008787611704565b5b5b5b5050505050505050565b600660009054906101000a900473ffffffffffffffffffffffffffffffffffffffff1681565b600360029054906101000a900473ffffffffffffffffffffffffffffffffffffffff1673ffffffffffffffffffffffffffffffffffffffff163373ffffffffffffffffffffffffffffffffffffffff1614151561127557600080fd5b6001600360006101000a81548160ff02191690831515021790555083600081905550826001819055508181600291906112af92919061194d565b507f959acb47e5c2d8e06d94529f0c7c88a879e4d7318ec3d88f7a960f66935418c160405160405180910390a150505050565b600360029054906101000a900473ffffffffffffffffffffffffffffffffffffffff1681565b600360029054906101000a900473ffffffffffffffffffffffffffffffffffffffff1673ffffffffffffffffffffffffffffffffffffffff163373ffffffffffffffffffffffffffffffffffffffff1614151561136457600080fd5b6000600360006101000a81548160ff0219169083151502179055506001600360016101000a81548160ff0219169083151502179055507f1b55ba3aa851a46be3b365aee5b5c140edd620d578922f3e8466d2cbd96f954b60405160405180910390a1565b6000600a80549050905090565b600460009054906101000a900473ffffffffffffffffffffffffffffffffffffffff1681565b611403611939565b6000806000806000806114146113c8565b9050600260005460015483600360009054906101000a900460ff16600360019054906101000a900460ff16858054600181600116156101000203166002900480601f0160208091040260200160405190810160405280929190818152602001828054600181600116156101000203166002900480156114d45780601f106114a9576101008083540402835291602001916114d4565b820191906000526020600020905b8154815290600101906020018083116114b757829003601f168201915b5050505050955096509650965096509650965050909192939495565b600360029054906101000a900473ffffffffffffffffffffffffffffffffffffffff1673ffffffffffffffffffffffffffffffffffffffff163373ffffffffffffffffffffffffffffffffffffffff161415151561154d57600080fd5b6001600360006101000a81548160ff0219169083151502179055151561157257600080fd5b60015461157d6113c8565b10151561158957600080fd5b6000543414156115ff576115ce82828080601f0160208091040260200160405190810160405280939291908181526020018383808284378201915050505050506117d7565b7f959acb47e5c2d8e06d94529f0c7c88a879e4d7318ec3d88f7a960f66935418c160405160405180910390a16116c5565b60005434101561160e57600080fd5b6000543411156116c4573373ffffffffffffffffffffffffffffffffffffffff166108fc60005434039081150290604051600060405180830381858888f19350505050151561165c57600080fd5b61169782828080601f0160208091040260200160405190810160405280939291908181526020018383808284378201915050505050506117d7565b7f959acb47e5c2d8e06d94529f0c7c88a879e4d7318ec3d88f7a960f66935418c160405160405180910390a15b5b5050565b60006103e860016116d86113c8565b0360026103e86116e66113c8565b028115156116f057fe5b04028115156116fb57fe5b04905080905090565b6000600360029054906101000a900473ffffffffffffffffffffffffffffffffffffffff1673ffffffffffffffffffffffffffffffffffffffff163373ffffffffffffffffffffffffffffffffffffffff1614151561176257600080fd5b600860008673ffffffffffffffffffffffffffffffffffffffff1673ffffffffffffffffffffffffffffffffffffffff16815260200190815260200160002090508381600201540181600201819055508281600301540181600301819055508181600401540181600401819055505050505050565b600080600033925060016117e96113c8565b019150600860008473ffffffffffffffffffffffffffffffffffffffff1673ffffffffffffffffffffffffffffffffffffffff1681526020019081526020016000209050826009600084815260200190815260200160002060006101000a81548173ffffffffffffffffffffffffffffffffffffffff021916908373ffffffffffffffffffffffffffffffffffffffff160217905550818160000181905550838160010190805190602001906118a09291906119cd565b50600a80548060010182816118b59190611a4d565b9160005260206000209001600085909190916101000a81548173ffffffffffffffffffffffffffffffffffffffff021916908373ffffffffffffffffffffffffffffffffffffffff1602179055505050505050565b610d80604051908101604052806003905b611923611a79565b81526020019060019003908161191b5790505090565b602060405190810160405280600081525090565b828054600181600116156101000203166002900490600052602060002090601f016020900481019282601f1061198e57803560ff19168380011785556119bc565b828001600101855582156119bc579182015b828111156119bb5782358255916020019190600101906119a0565b5b5090506119c99190611aa2565b5090565b828054600181600116156101000203166002900490600052602060002090601f016020900481019282601f10611a0e57805160ff1916838001178555611a3c565b82800160010185558215611a3c579182015b82811115611a3b578251825591602001919060010190611a20565b5b509050611a499190611aa2565b5090565b815481835581811511611a7457818360005260206000209182019101611a739190611aa2565b5b505050565b610480604051908101604052806024905b6000815260200190600190039081611a8a5790505090565b611ac491905b80821115611ac0576000816000905550600101611aa8565b5090565b905600a165627a7a723058209ea1fc1b3fbcf7698b61ac5c01572a85b68dfb94e46f69e0c4eb7bd4cb34d27e0029",
  "source": "pragma solidity ^0.4.18;\r\n\r\n///@title FIFARumble\r\n///@author Marco Dell'Oso - targens\r\n\r\ncontract FIFARumble {\r\n    uint fee;\r\n    uint maxPlayers;\r\n    string tournamentName;\r\n    bool registrationOpen;\r\n    bool tournamentStarted;\r\n    address public gameMaster;\r\n    address public winner;\r\n    address public second;\r\n    address public third;\r\n\r\n    struct Player {\r\n        uint pID;\r\n        string name;\r\n        uint points;\r\n        uint goals;\r\n        uint counterGoals;\r\n    }\r\n\r\n    struct Encounter {\r\n        uint p1ID;\r\n        uint p2ID;\r\n        uint p1Goals;\r\n        uint p2Goals;\r\n        bool isValue;\r\n    }\r\n\r\n    mapping (uint=>Encounter) encounters;\r\n    mapping (address=>Player) players;\r\n    mapping (uint=>address) playerIDs;\r\n    address[] playerAccts;\r\n       \r\n    event newRegister();\r\n    event Start(); \r\n    event MatchDecided(Encounter);\r\n    event End(uint, uint, uint);\r\n   \r\n     ////modifiers////\r\n    modifier gameMasterOnly {\r\n        require(msg.sender == gameMaster);\r\n        _;\r\n    }\r\n\r\n    modifier playerOnly {\r\n        require(msg.sender != gameMaster);\r\n        _;\r\n    }\r\n\r\n    modifier registrationValid {\r\n        require(registrationOpen = true);\r\n        _;\r\n    }\r\n\r\n    //fee in ETH\r\n    function createTournament(uint _fee, uint _maxPlayers, string _tournamentName) external gameMasterOnly {\r\n        registrationOpen = true;\r\n        fee = _fee;\r\n        maxPlayers = _maxPlayers;\r\n        tournamentName = _tournamentName;\r\n        emit newRegister();\r\n    }\r\n    \r\n    function startTournament() public gameMasterOnly {\r\n        registrationOpen = false;\r\n        tournamentStarted = true;\r\n        emit Start();\r\n    }\r\n\r\n    function getTournament() external view returns (string, uint, uint, uint, bool, bool) {\r\n        uint i = getPlayerCount();\r\n        return (tournamentName, fee, maxPlayers, i, registrationOpen, tournamentStarted);\r\n    }\r\n\r\n    function setPoints(address _address, uint _points, uint _goals, uint _counterGoals) gameMasterOnly internal {\r\n        Player storage player = players[_address];\r\n        player.points = player.points + _points;\r\n        player.goals = player.goals + _goals;\r\n        player.counterGoals = player.counterGoals + _counterGoals;\r\n    }\r\n\r\n    function endTournament(address _w, address _s, address _t) public gameMasterOnly {\r\n        winner = _w;\r\n        second = _s;\r\n        third = _t;\r\n\r\n        uint pot = address(this).balance;\r\n        uint price1 = (pot * 60 / 100);\r\n        winner.transfer(price1);\r\n        uint price2 = (pot * 30 / 100);\r\n        second.transfer(price2);\r\n        uint price3 = (pot * 10 / 100);\r\n        third.transfer(price3);\r\n\r\n        emit End(price1, price2, price3);\r\n  \r\n    }\r\n\r\n    //for details on tournament systems see: https://en.wikipedia.org/wiki/Category:Tournament_systems \r\n    function getRoundRobin() gameMasterOnly view external returns (uint[36][3] gamePlan) {\r\n        uint nOM = getNumberOfMatches();\r\n        uint nOP = getPlayerCount();\r\n        uint modRound = 1;\r\n        uint p1Temp;\r\n        uint p2Temp;\r\n\r\n        for (uint i = 1; i <= nOM; i++) {\r\n  \r\n            if (i % nOP == 0) {\r\n                p1Temp = nOP;\r\n            } else {\r\n                p1Temp = (i % nOP);\r\n            }\r\n        \r\n            if ((i + modRound) % nOP == 0) {\r\n                p2Temp = nOP;\r\n            } else {\r\n                p2Temp = (i + modRound) % nOP;\r\n            }\r\n            \r\n            gamePlan[0][i - 1] = i;\r\n            gamePlan[1][i - 1] = p1Temp;\r\n            gamePlan[2][i - 1] = p2Temp;           \r\n\r\n            if (i % nOP == 0 && i > 1) {\r\n                modRound ++;\r\n            }\r\n        }\r\n        return gamePlan;\r\n    }   \r\n\r\n    function getNumberOfMatches() internal view returns(uint numberOfMatches) {\r\n        numberOfMatches = ((getPlayerCount() * 1000 ) / 2 * (getPlayerCount() - 1)) / 1000;\r\n        return numberOfMatches;\r\n    }\r\n\r\n    function decideMatch(uint _matchID, uint _p1, uint _p2, uint _p1Goals, uint _p2Goals) gameMasterOnly external {\r\n        if (tournamentStarted) {\r\n            Encounter storage en = encounters[_matchID];\r\n            en.p1ID = _p1;\r\n            en.p2ID = _p2;\r\n            en.p1Goals = _p1Goals;\r\n            en.p2Goals = _p2Goals;\r\n            var (p1, , , , ) = getPlayerByID(_p1);\r\n            var (p2, , , , ) = getPlayerByID(_p2);\r\n            \r\n            if (_p1Goals > _p2Goals) {\r\n                setPoints(p1, 3, _p1Goals, _p2Goals);\r\n                setPoints(p2, 0, _p2Goals, _p1Goals);\r\n            } else if (_p1Goals < _p2Goals) {\r\n                setPoints(p2, 3, _p2Goals, _p1Goals);\r\n                setPoints(p1, 0, _p1Goals, _p2Goals);\r\n            }\r\n        }\r\n    }\r\n\r\n    ////player functions////\r\n\r\n    function register(string _playerName) playerOnly registrationValid external payable {\r\n\r\n        if (getPlayerCount() >= maxPlayers) {\r\n            revert();\r\n        }\r\n\r\n        if (msg.value == fee) {\r\n            setPlayer(_playerName);\r\n            emit newRegister();\r\n   \r\n        } else if (msg.value < fee) {\r\n            revert();\r\n\r\n        } else if (msg.value > fee) {\r\n            msg.sender.transfer(msg.value - fee);\r\n            setPlayer(_playerName);\r\n            emit newRegister();\r\n    \r\n        }       \r\n    }\r\n\r\n    function setPlayer(string _playerName) internal {\r\n        address tempAddress = msg.sender;\r\n        uint tempID = getPlayerCount() + 1;\r\n        Player storage player = players[tempAddress]; \r\n        playerIDs[tempID] = tempAddress;\r\n\r\n        player.pID = tempID;\r\n        player.name = _playerName;\r\n        playerAccts.push(tempAddress);\r\n    }\r\n\r\n    function getPlayerCount() public constant returns(uint count) {\r\n        return playerAccts.length;\r\n    }\r\n\r\n    function getPlayer(address _playerAddress) view public returns (\r\n        uint pID,\r\n        string name,\r\n        uint points,\r\n        uint goals,\r\n        uint counterGoals)\r\n        {\r\n\r\n        return (\r\n            players[_playerAddress].pID,\r\n            players[_playerAddress].name,\r\n            players[_playerAddress].points,\r\n            players[_playerAddress].goals,\r\n            players[_playerAddress].counterGoals);\r\n    }\r\n\r\n    function getPlayerByID(uint _playerID) view public returns (\r\n        address addressP,\r\n        string name,\r\n        uint points,\r\n        uint goals,\r\n        uint counterGoals,\r\n        uint PlayerID)\r\n        {\r\n        addressP = (playerIDs[_playerID]);     \r\n        return (\r\n            addressP,\r\n            players[addressP].name,\r\n            players[addressP].points,\r\n            players[addressP].goals,\r\n            players[addressP].counterGoals,\r\n            _playerID);\r\n\r\n    }\r\n\r\n    function getEncounter(uint _matchID) view public returns (\r\n        uint p1ID,\r\n        uint p2ID,\r\n        uint p1Goals,\r\n        uint p2Goals) {\r\n\r\n        return (\r\n            encounters[_matchID].p1ID,\r\n            encounters[_matchID].p2ID,\r\n            encounters[_matchID].p1Goals,\r\n            encounters[_matchID].p2Goals\r\n            );\r\n\r\n    }\r\n\r\n    function FIFARumble() public {\r\n        gameMaster = msg.sender;\r\n    } \r\n\r\n    function() public {\r\n        revert();\r\n    } \r\n    \r\n    function kill() public { \r\n        if (msg.sender == gameMaster) {\r\n            selfdestruct(gameMaster);\r\n        }\r\n    }\r\n}\r\n\r\n\r\n\r\n\r\n\r\n\r\n\r\n\r\n",
  "sourcePath": "C:\\Users\\mdelloso\\Workspace\\FIFA\\contracts\\FIFARumble.sol",
  "compiler": {
    "name": "solc",
    "version": "0.4.21+commit.dfe3193c.Emscripten.clang"
  },
  "schemaVersion": "2.0.0",
  "updatedAt": "2018-04-19T14:44:03.879Z"
}