{
  "contractName": "FIFARumble",
  "abi": [
    {
      "constant": true,
      "inputs": [],
      "name": "gameMaster",
      "outputs": [
        {
          "name": "",
          "type": "address"
        }
      ],
      "payable": false,
      "stateMutability": "view",
      "type": "function"
    },
    {
      "inputs": [],
      "payable": false,
      "stateMutability": "nonpayable",
      "type": "constructor"
    },
    {
      "payable": false,
      "stateMutability": "nonpayable",
      "type": "fallback"
    },
    {
      "anonymous": false,
      "inputs": [
        {
          "indexed": false,
          "name": "missing",
          "type": "uint256"
        }
      ],
      "name": "InsufficientFee",
      "type": "event"
    },
    {
      "anonymous": false,
      "inputs": [
        {
          "indexed": false,
          "name": "spare",
          "type": "uint256"
        }
      ],
      "name": "FeeToHigh",
      "type": "event"
    },
    {
      "anonymous": false,
      "inputs": [
        {
          "indexed": false,
          "name": "mP",
          "type": "uint256"
        }
      ],
      "name": "TournamentFull",
      "type": "event"
    },
    {
      "anonymous": false,
      "inputs": [],
      "name": "Start",
      "type": "event"
    },
    {
      "anonymous": false,
      "inputs": [
        {
          "components": [
            {
              "name": "winnerID",
              "type": "uint256"
            },
            {
              "name": "loserID",
              "type": "uint256"
            },
            {
              "name": "winnerGoals",
              "type": "uint256"
            },
            {
              "name": "loserGoals",
              "type": "uint256"
            }
          ],
          "indexed": false,
          "name": "",
          "type": "tuple"
        }
      ],
      "name": "MatchDecided",
      "type": "event"
    },
    {
      "constant": false,
      "inputs": [
        {
          "name": "_fee",
          "type": "uint256"
        },
        {
          "name": "_maxPlayers",
          "type": "uint256"
        },
        {
          "name": "_tournamentName",
          "type": "string"
        }
      ],
      "name": "createTournament",
      "outputs": [],
      "payable": false,
      "stateMutability": "nonpayable",
      "type": "function"
    },
    {
      "constant": false,
      "inputs": [],
      "name": "startTournament",
      "outputs": [],
      "payable": false,
      "stateMutability": "nonpayable",
      "type": "function"
    },
    {
      "constant": true,
      "inputs": [],
      "name": "getTournament",
      "outputs": [
        {
          "name": "",
          "type": "string"
        },
        {
          "name": "",
          "type": "uint256"
        },
        {
          "name": "",
          "type": "uint256"
        },
        {
          "name": "",
          "type": "uint256"
        },
        {
          "name": "",
          "type": "bool"
        },
        {
          "name": "",
          "type": "bool"
        }
      ],
      "payable": false,
      "stateMutability": "view",
      "type": "function"
    },
    {
      "constant": true,
      "inputs": [],
      "name": "getRoundRobin",
      "outputs": [
        {
          "name": "gamePlan",
          "type": "uint256[36][3]"
        }
      ],
      "payable": false,
      "stateMutability": "view",
      "type": "function"
    },
    {
      "constant": false,
      "inputs": [
        {
          "name": "_matchID",
          "type": "uint256"
        },
        {
          "name": "_winner",
          "type": "uint256"
        },
        {
          "name": "_loser",
          "type": "uint256"
        },
        {
          "name": "_winnerGoals",
          "type": "uint256"
        },
        {
          "name": "_loserGoals",
          "type": "uint256"
        }
      ],
      "name": "decideMatch",
      "outputs": [],
      "payable": false,
      "stateMutability": "nonpayable",
      "type": "function"
    },
    {
      "constant": false,
      "inputs": [
        {
          "name": "_playerName",
          "type": "string"
        },
        {
          "name": "_club",
          "type": "string"
        }
      ],
      "name": "register",
      "outputs": [
        {
          "name": "reg",
          "type": "bool"
        }
      ],
      "payable": true,
      "stateMutability": "payable",
      "type": "function"
    },
    {
      "constant": true,
      "inputs": [],
      "name": "getPlayerCount",
      "outputs": [
        {
          "name": "count",
          "type": "uint256"
        }
      ],
      "payable": false,
      "stateMutability": "view",
      "type": "function"
    },
    {
      "constant": true,
      "inputs": [
        {
          "name": "_playerAddress",
          "type": "address"
        }
      ],
      "name": "getPlayer",
      "outputs": [
        {
          "name": "pID",
          "type": "uint256"
        },
        {
          "name": "name",
          "type": "string"
        },
        {
          "name": "club",
          "type": "string"
        },
        {
          "name": "points",
          "type": "uint256"
        },
        {
          "name": "goals",
          "type": "uint256"
        },
        {
          "name": "counterGoals",
          "type": "uint256"
        }
      ],
      "payable": false,
      "stateMutability": "view",
      "type": "function"
    },
    {
      "constant": true,
      "inputs": [
        {
          "name": "_playerID",
          "type": "uint256"
        }
      ],
      "name": "getPlayerByID",
      "outputs": [
        {
          "name": "addressP",
          "type": "address"
        },
        {
          "name": "name",
          "type": "string"
        },
        {
          "name": "club",
          "type": "string"
        },
        {
          "name": "points",
          "type": "uint256"
        },
        {
          "name": "goals",
          "type": "uint256"
        },
        {
          "name": "counterGoals",
          "type": "uint256"
        }
      ],
      "payable": false,
      "stateMutability": "view",
      "type": "function"
    },
    {
      "constant": true,
      "inputs": [
        {
          "name": "_matchID",
          "type": "uint256"
        }
      ],
      "name": "getEncounter",
      "outputs": [
        {
          "name": "winnerID",
          "type": "uint256"
        },
        {
          "name": "loserID",
          "type": "uint256"
        },
        {
          "name": "winnerGoals",
          "type": "uint256"
        },
        {
          "name": "loserGoals",
          "type": "uint256"
        }
      ],
      "payable": false,
      "stateMutability": "view",
      "type": "function"
    },
    {
      "constant": false,
      "inputs": [],
      "name": "kill",
      "outputs": [],
      "payable": false,
      "stateMutability": "nonpayable",
      "type": "function"
    }
  ],
  "bytecode": "0x6060604052341561000f57600080fd5b33600360026101000a81548173ffffffffffffffffffffffffffffffffffffffff021916908373ffffffffffffffffffffffffffffffffffffffff1602179055506118168061005f6000396000f3006060604052600436106100ba576000357c0100000000000000000000000000000000000000000000000000000000900463ffffffff1680632f723f05146100ca5780633ffbd47f1461013e57806341c0e1b51461018d57806342026081146101a25780635c12cd4b146101ee5780637270765b1461032857806373efabaa14610478578063b3e88185146104bf578063bdf84ae7146104ff578063bf559d1114610554578063c2e5220614610569578063e76c293e14610592575b34156100c557600080fd5b600080fd5b34156100d557600080fd5b6100dd61064b565b604051808260036000925b8184101561012e5782846020020151602460200280838360005b8381101561011d578082015181840152602081019050610102565b5050505090500192600101926100e8565b9250505091505060405180910390f35b610173600480803590602001908201803590602001919091929080359060200190820180359060200191909192905050610804565b604051808215151515815260200191505060405180910390f35b341561019857600080fd5b6101a0610ab2565b005b34156101ad57600080fd5b6101c36004808035906020019091905050610b45565b6040518085815260200184815260200183815260200182815260200194505050505060405180910390f35b34156101f957600080fd5b610225600480803573ffffffffffffffffffffffffffffffffffffffff16906020019091905050610bb6565b604051808781526020018060200180602001868152602001858152602001848152602001838103835288818151815260200191508051906020019080838360005b83811015610281578082015181840152602081019050610266565b50505050905090810190601f1680156102ae5780820380516001836020036101000a031916815260200191505b50838103825287818151815260200191508051906020019080838360005b838110156102e75780820151818401526020810190506102cc565b50505050905090810190601f1680156103145780820380516001836020036101000a031916815260200191505b509850505050505050505060405180910390f35b341561033357600080fd5b6103496004808035906020019091905050610eaa565b604051808773ffffffffffffffffffffffffffffffffffffffff1673ffffffffffffffffffffffffffffffffffffffff1681526020018060200180602001868152602001858152602001848152602001838103835288818151815260200191508051906020019080838360005b838110156103d15780820151818401526020810190506103b6565b50505050905090810190601f1680156103fe5780820380516001836020036101000a031916815260200191505b50838103825287818151815260200191508051906020019080838360005b8381101561043757808201518184015260208101905061041c565b50505050905090810190601f1680156104645780820380516001836020036101000a031916815260200191505b509850505050505050505060405180910390f35b341561048357600080fd5b6104bd6004808035906020019091908035906020019091908035906020019091908035906020019091908035906020019091905050611192565b005b34156104ca57600080fd5b6104fd60048080359060200190919080359060200190919080359060200190820180359060200191909192905050611231565b005b341561050a57600080fd5b6105126112ce565b604051808273ffffffffffffffffffffffffffffffffffffffff1673ffffffffffffffffffffffffffffffffffffffff16815260200191505060405180910390f35b341561055f57600080fd5b6105676112f4565b005b341561057457600080fd5b61057c6113b4565b6040518082815260200191505060405180910390f35b341561059d57600080fd5b6105a56113c1565b60405180806020018781526020018681526020018581526020018415151515815260200183151515158152602001828103825288818151815260200191508051906020019080838360005b8381101561060b5780820151818401526020810190506105f0565b50505050905090810190601f1680156106385780820380516001836020036101000a031916815260200191505b5097505050505050505060405180910390f35b61065361162d565b600080600080600080600360029054906101000a900473ffffffffffffffffffffffffffffffffffffffff1673ffffffffffffffffffffffffffffffffffffffff163373ffffffffffffffffffffffffffffffffffffffff161415156106b857600080fd5b6106c06114b6565b95506106ca6113b4565b945060019350600190505b85811115156107f857600085828115156106eb57fe5b0614156106fa57849250610709565b848181151561070557fe5b0692505b60008585830181151561071857fe5b06141561072757849150610738565b8484820181151561073457fe5b0691505b8087600060038110151561074857fe5b60200201516001830360248110151561075d57fe5b6020020181815250508287600160038110151561077657fe5b60200201516001830360248110151561078b57fe5b602002018181525050818760026003811015156107a457fe5b6020020151600183036024811015156107b957fe5b602002018181525050600085828115156107cf57fe5b061480156107dd5750600181115b156107eb5783806001019450505b80806001019150506106d5565b86965050505050505090565b6000600360029054906101000a900473ffffffffffffffffffffffffffffffffffffffff1673ffffffffffffffffffffffffffffffffffffffff163373ffffffffffffffffffffffffffffffffffffffff161415151561086357600080fd5b6001600360006101000a81548160ff0219169083151502179055151561088857600080fd5b6001546108936113b4565b1015156108d8577fa13de98824a467bc63f2dc9f0b3d82986798ea1074637a08dcc1bb22f2d628a56001546040518082815260200191505060405180910390a1600080fd5b60005434141561095c5761095085858080601f01602080910402602001604051908101604052809392919081815260200183838082843782019150505050505084848080601f0160208091040260200160405190810160405280939291908181526020018383808284378201915050505050506114e0565b60019050809050610aaa565b6000543410156109a6577f4c4e635ca3f567e18560e4c6c2d3e2ff2faf36a078fc0b6efaeb82658057a73734600054036040518082815260200191505060405180910390a1600080fd5b600054341115610aa9573373ffffffffffffffffffffffffffffffffffffffff166108fc60005434039081150290604051600060405180830381858888f1935050505015156109f457600080fd5b7ffe80ce05e5aab40521b1bcd762d2d0d53b93581678b020d05a76beb0ed8a791760005434036040518082815260200191505060405180910390a1610a9d85858080601f01602080910402602001604051908101604052809392919081815260200183838082843782019150505050505084848080601f0160208091040260200160405190810160405280939291908181526020018383808284378201915050505050506114e0565b60019050809050610aaa565b5b949350505050565b600360029054906101000a900473ffffffffffffffffffffffffffffffffffffffff1673ffffffffffffffffffffffffffffffffffffffff163373ffffffffffffffffffffffffffffffffffffffff161415610b4357600360029054906101000a900473ffffffffffffffffffffffffffffffffffffffff1673ffffffffffffffffffffffffffffffffffffffff16ff5b565b600080600080600460008681526020019081526020016000206000015460046000878152602001908152602001600020600101546004600088815260200190815260200160002060020154600460008981526020019081526020016000206003015493509350935093509193509193565b6000610bc061165c565b610bc861165c565b6000806000600560008873ffffffffffffffffffffffffffffffffffffffff1673ffffffffffffffffffffffffffffffffffffffff16815260200190815260200160002060000154600560008973ffffffffffffffffffffffffffffffffffffffff1673ffffffffffffffffffffffffffffffffffffffff168152602001908152602001600020600101600560008a73ffffffffffffffffffffffffffffffffffffffff1673ffffffffffffffffffffffffffffffffffffffff168152602001908152602001600020600201600560008b73ffffffffffffffffffffffffffffffffffffffff1673ffffffffffffffffffffffffffffffffffffffff16815260200190815260200160002060030154600560008c73ffffffffffffffffffffffffffffffffffffffff1673ffffffffffffffffffffffffffffffffffffffff16815260200190815260200160002060040154600560008d73ffffffffffffffffffffffffffffffffffffffff1673ffffffffffffffffffffffffffffffffffffffff16815260200190815260200160002060050154848054600181600116156101000203166002900480601f016020809104026020016040519081016040528092919081815260200182805460018160011615610100020316600290048015610df25780601f10610dc757610100808354040283529160200191610df2565b820191906000526020600020905b815481529060010190602001808311610dd557829003601f168201915b50505050509450838054600181600116156101000203166002900480601f016020809104026020016040519081016040528092919081815260200182805460018160011615610100020316600290048015610e8e5780601f10610e6357610100808354040283529160200191610e8e565b820191906000526020600020905b815481529060010190602001808311610e7157829003601f168201915b5050505050935095509550955095509550955091939550919395565b6000610eb461165c565b610ebc61165c565b60008060006006600088815260200190815260200160002060009054906101000a900473ffffffffffffffffffffffffffffffffffffffff16955085600560008873ffffffffffffffffffffffffffffffffffffffff1673ffffffffffffffffffffffffffffffffffffffff168152602001908152602001600020600101600560008973ffffffffffffffffffffffffffffffffffffffff1673ffffffffffffffffffffffffffffffffffffffff168152602001908152602001600020600201600560008a73ffffffffffffffffffffffffffffffffffffffff1673ffffffffffffffffffffffffffffffffffffffff16815260200190815260200160002060030154600560008b73ffffffffffffffffffffffffffffffffffffffff1673ffffffffffffffffffffffffffffffffffffffff16815260200190815260200160002060040154600560008c73ffffffffffffffffffffffffffffffffffffffff1673ffffffffffffffffffffffffffffffffffffffff16815260200190815260200160002060050154848054600181600116156101000203166002900480601f0160208091040260200160405190810160405280929190818152602001828054600181600116156101000203166002900480156110da5780601f106110af576101008083540402835291602001916110da565b820191906000526020600020905b8154815290600101906020018083116110bd57829003601f168201915b50505050509450838054600181600116156101000203166002900480601f0160208091040260200160405190810160405280929190818152602001828054600181600116156101000203166002900480156111765780601f1061114b57610100808354040283529160200191611176565b820191906000526020600020905b81548152906001019060200180831161115957829003601f168201915b5050505050935095509550955095509550955091939550919395565b6000600360029054906101000a900473ffffffffffffffffffffffffffffffffffffffff1673ffffffffffffffffffffffffffffffffffffffff163373ffffffffffffffffffffffffffffffffffffffff161415156111f057600080fd5b600460008781526020019081526020016000209050848160000181905550838160010181905550828160020181905550818160030181905550505050505050565b600360029054906101000a900473ffffffffffffffffffffffffffffffffffffffff1673ffffffffffffffffffffffffffffffffffffffff163373ffffffffffffffffffffffffffffffffffffffff1614151561128d57600080fd5b6001600360006101000a81548160ff02191690831515021790555083600081905550826001819055508181600291906112c7929190611670565b5050505050565b600360029054906101000a900473ffffffffffffffffffffffffffffffffffffffff1681565b600360029054906101000a900473ffffffffffffffffffffffffffffffffffffffff1673ffffffffffffffffffffffffffffffffffffffff163373ffffffffffffffffffffffffffffffffffffffff1614151561135057600080fd5b6000600360006101000a81548160ff0219169083151502179055506001600360016101000a81548160ff0219169083151502179055507f1b55ba3aa851a46be3b365aee5b5c140edd620d578922f3e8466d2cbd96f954b60405160405180910390a1565b6000600780549050905090565b6113c961165c565b6000806000806000806113da6113b4565b9050600260005460015483600360009054906101000a900460ff16600360019054906101000a900460ff16858054600181600116156101000203166002900480601f01602080910402602001604051908101604052809291908181526020018280546001816001161561010002031660029004801561149a5780601f1061146f5761010080835404028352916020019161149a565b820191906000526020600020905b81548152906001019060200180831161147d57829003601f168201915b5050505050955096509650965096509650965050909192939495565b600060016114c26113b4565b0360026114cd6113b4565b8115156114d657fe5b0402905080905090565b600080600033925060016114f26113b4565b019150600560008473ffffffffffffffffffffffffffffffffffffffff1673ffffffffffffffffffffffffffffffffffffffff1681526020019081526020016000209050826006600084815260200190815260200160002060006101000a81548173ffffffffffffffffffffffffffffffffffffffff021916908373ffffffffffffffffffffffffffffffffffffffff160217905550818160000181905550848160010190805190602001906115a99291906116f0565b50838160020190805190602001906115c29291906116f0565b50600780548060010182816115d79190611770565b9160005260206000209001600085909190916101000a81548173ffffffffffffffffffffffffffffffffffffffff021916908373ffffffffffffffffffffffffffffffffffffffff160217905550505050505050565b610d80604051908101604052806003905b61164661179c565b81526020019060019003908161163e5790505090565b602060405190810160405280600081525090565b828054600181600116156101000203166002900490600052602060002090601f016020900481019282601f106116b157803560ff19168380011785556116df565b828001600101855582156116df579182015b828111156116de5782358255916020019190600101906116c3565b5b5090506116ec91906117c5565b5090565b828054600181600116156101000203166002900490600052602060002090601f016020900481019282601f1061173157805160ff191683800117855561175f565b8280016001018555821561175f579182015b8281111561175e578251825591602001919060010190611743565b5b50905061176c91906117c5565b5090565b8154818355818115116117975781836000526020600020918201910161179691906117c5565b5b505050565b610480604051908101604052806024905b60008152602001906001900390816117ad5790505090565b6117e791905b808211156117e35760008160009055506001016117cb565b5090565b905600a165627a7a723058202b12b107e0e09e2f43ba3d22f777d14e8010d1ee64609b09f1bda51c3e3b3d950029",
  "source": "pragma solidity ^0.4.18;\r\n\r\n///@title FIFARumble\r\n///@author Marco Dell'Oso - targens\r\n\r\ncontract FIFARumble {\r\n    uint fee;\r\n    uint maxPlayers;\r\n    string tournamentName;\r\n    bool registrationOpen;\r\n    bool tournamentStarted;\r\n    address public gameMaster;\r\n\r\n    struct Player {\r\n        uint pID;\r\n        string name;\r\n        string club;\r\n        uint points;\r\n        uint goals;\r\n        uint counterGoals;\r\n    }\r\n\r\n    struct Encounter {\r\n        uint winnerID;\r\n        uint loserID;\r\n        uint winnerGoals;\r\n        uint loserGoals;\r\n    }\r\n\r\n    mapping (uint=>Encounter) encounters;\r\n    mapping (address=>Player) players;\r\n    mapping (uint=>address) playerIDs;\r\n    address[] playerAccts;\r\n       \r\n    event InsufficientFee(uint missing);\r\n    event FeeToHigh(uint spare);\r\n    event TournamentFull(uint mP);\r\n    event Start(); \r\n    event MatchDecided(Encounter);\r\n   \r\n     ////modifiers////\r\n    modifier gameMasterOnly {\r\n        require(msg.sender == gameMaster);\r\n        _;\r\n    }\r\n\r\n    modifier playerOnly {\r\n        require(msg.sender != gameMaster);\r\n        _;\r\n    }\r\n\r\n    modifier registrationValid {\r\n        require(registrationOpen = true);\r\n        _;\r\n    }\r\n\r\n\r\n    //fee in ETH\r\n    function createTournament(uint _fee, uint _maxPlayers, string _tournamentName) external gameMasterOnly {\r\n        registrationOpen = true;\r\n        fee = _fee;\r\n        maxPlayers = _maxPlayers;\r\n        tournamentName = _tournamentName;\r\n    }\r\n    \r\n    function startTournament() public gameMasterOnly {\r\n        registrationOpen = false;\r\n        tournamentStarted = true;\r\n        emit Start();\r\n    }\r\n\r\n    function getTournament() external view returns (string, uint, uint, uint, bool, bool) {\r\n        uint i = getPlayerCount();\r\n        return (tournamentName, fee, maxPlayers, i, registrationOpen, tournamentStarted);\r\n    }\r\n\r\n    //for details on tournament systems see: https://en.wikipedia.org/wiki/Category:Tournament_systems \r\n    function getRoundRobin() gameMasterOnly view external returns (uint[36][3] gamePlan) {\r\n        uint nOM = getNumberOfMatches();\r\n        uint nOP = getPlayerCount();\r\n        uint modRound = 1;\r\n        uint p1Temp;\r\n        uint p2Temp;\r\n\r\n        for (uint i = 1; i <= nOM; i++) {\r\n  \r\n            if (i % nOP == 0) {\r\n                p1Temp = nOP;\r\n            } else {\r\n                p1Temp = (i % nOP);\r\n            }\r\n        \r\n            if ((i + modRound) % nOP == 0) {\r\n                p2Temp = nOP;\r\n            } else {\r\n                p2Temp = (i + modRound) % nOP;\r\n            }\r\n            \r\n            gamePlan[0][i - 1] = i;\r\n            gamePlan[1][i - 1] = p1Temp;\r\n            gamePlan[2][i - 1] = p2Temp;           \r\n\r\n            if (i % nOP == 0 && i > 1) {\r\n                modRound ++;\r\n            }\r\n        }\r\n        return gamePlan;\r\n    }   \r\n\r\n    function getNumberOfMatches() internal view returns(uint numberOfMatches) {\r\n        numberOfMatches = getPlayerCount() / 2 * (getPlayerCount() - 1);\r\n        return numberOfMatches;\r\n    }\r\n\r\n    function decideMatch(uint _matchID, uint _winner, uint _loser, uint _winnerGoals, uint _loserGoals) gameMasterOnly external {\r\n\r\n        Encounter storage en = encounters[_matchID];\r\n\r\n        en.winnerID = _winner;\r\n        en.loserID = _loser;\r\n        en.winnerGoals = _winnerGoals;\r\n        en.loserGoals = _loserGoals;\r\n\r\n    }\r\n    ////player functions////\r\n\r\n    function register(string _playerName, string _club) playerOnly registrationValid external payable returns(bool reg) {\r\n\r\n        if (getPlayerCount() >= maxPlayers) {\r\n            emit TournamentFull(maxPlayers);\r\n            revert();\r\n        }\r\n\r\n        if (msg.value == fee) {\r\n            setPlayer(_playerName, _club);\r\n            reg = true;\r\n            return reg;\r\n\r\n        } else if (msg.value < fee) {\r\n            emit InsufficientFee(fee - msg.value);\r\n            revert();\r\n\r\n        } else if (msg.value > fee) {\r\n            msg.sender.transfer(msg.value - fee);\r\n            emit FeeToHigh(msg.value - fee);\r\n            setPlayer(_playerName, _club);\r\n            reg = true;\r\n            return reg;\r\n        }       \r\n    }\r\n\r\n    function setPlayer(string _playerName, string _club) internal {\r\n        address tempAddress = msg.sender;\r\n        uint tempID = getPlayerCount() + 1;\r\n        Player storage player = players[tempAddress]; \r\n        playerIDs[tempID] = tempAddress;\r\n\r\n        player.pID = tempID;\r\n        player.name = _playerName;\r\n        player.club = _club;\r\n        playerAccts.push(tempAddress);\r\n    }\r\n\r\n    // function setPoints(address _address, uint _points, uint _goals, uint _counterGoals) gameMasterOnly internal {\r\n    //     Player storage player = players[_address];\r\n    //     player.points = player.points + _points;\r\n    //     player.goals = player.goals + _goals;\r\n    //     player.counterGoals = player.counterGoals + _counterGoals;\r\n    // }\r\n\r\n    function getPlayerCount() public constant returns(uint count) {\r\n        return playerAccts.length;\r\n    }\r\n\r\n    function getPlayer(address _playerAddress) view public returns (\r\n        uint pID,\r\n        string name,\r\n        string club,\r\n        uint points,\r\n        uint goals,\r\n        uint counterGoals)\r\n        {\r\n\r\n        return (\r\n            players[_playerAddress].pID,\r\n            players[_playerAddress].name,\r\n            players[_playerAddress].club,\r\n            players[_playerAddress].points,\r\n            players[_playerAddress].goals,\r\n            players[_playerAddress].counterGoals);\r\n    }\r\n\r\n    function getPlayerByID(uint _playerID) view public returns (\r\n        address addressP,\r\n        string name,\r\n        string club,\r\n        uint points,\r\n        uint goals,\r\n        uint counterGoals)\r\n        {\r\n\r\n        addressP = (playerIDs[_playerID]);\r\n        \r\n        return (\r\n            addressP,\r\n            players[addressP].name,\r\n            players[addressP].club,\r\n            players[addressP].points,\r\n            players[addressP].goals,\r\n            players[addressP].counterGoals);\r\n\r\n    }\r\n\r\n    function getEncounter(uint _matchID) view public returns (\r\n        uint winnerID,\r\n        uint loserID,\r\n        uint winnerGoals,\r\n        uint loserGoals) {\r\n\r\n        return (\r\n            encounters[_matchID].winnerID,\r\n            encounters[_matchID].loserID,\r\n            encounters[_matchID].winnerGoals,\r\n            encounters[_matchID].loserGoals\r\n            );\r\n\r\n    }\r\n\r\n    function FIFARumble() public {\r\n        gameMaster = msg.sender;\r\n    } \r\n\r\n    function() public {\r\n        revert();\r\n    } \r\n    \r\n    function kill() public { \r\n        if (msg.sender == gameMaster) {\r\n            selfdestruct(gameMaster);\r\n        }\r\n    }\r\n}\r\n\r\n\r\n\r\n\r\n\r\n\r\n\r\n\r\n",
  "sourcePath": "C:\\Users\\mdelloso\\Workspace\\FIFA\\contracts\\FIFARumble.sol",
  "compiler": {
    "name": "solc",
    "version": "0.4.21+commit.dfe3193c.Emscripten.clang"
  },
  "schemaVersion": "2.0.0",
  "updatedAt": "2018-04-11T14:28:01.219Z"
}