{
  "contractName": "FIFARumble",
  "abi": [
    {
      "constant": true,
      "inputs": [],
      "name": "gameMaster",
      "outputs": [
        {
          "name": "",
          "type": "address"
        }
      ],
      "payable": false,
      "stateMutability": "view",
      "type": "function"
    },
    {
      "inputs": [],
      "payable": false,
      "stateMutability": "nonpayable",
      "type": "constructor"
    },
    {
      "payable": false,
      "stateMutability": "nonpayable",
      "type": "fallback"
    },
    {
      "anonymous": false,
      "inputs": [
        {
          "indexed": false,
          "name": "missing",
          "type": "uint256"
        }
      ],
      "name": "InsufficientFee",
      "type": "event"
    },
    {
      "anonymous": false,
      "inputs": [
        {
          "indexed": false,
          "name": "spare",
          "type": "uint256"
        }
      ],
      "name": "FeeToHigh",
      "type": "event"
    },
    {
      "anonymous": false,
      "inputs": [
        {
          "indexed": false,
          "name": "mP",
          "type": "uint256"
        }
      ],
      "name": "TournamentFull",
      "type": "event"
    },
    {
      "anonymous": false,
      "inputs": [],
      "name": "Start",
      "type": "event"
    },
    {
      "anonymous": false,
      "inputs": [
        {
          "components": [
            {
              "name": "winnerID",
              "type": "uint256"
            },
            {
              "name": "loserID",
              "type": "uint256"
            },
            {
              "name": "winnerGoals",
              "type": "uint256"
            },
            {
              "name": "loserGoals",
              "type": "uint256"
            }
          ],
          "indexed": false,
          "name": "",
          "type": "tuple"
        }
      ],
      "name": "MatchDecided",
      "type": "event"
    },
    {
      "constant": false,
      "inputs": [
        {
          "name": "_fee",
          "type": "uint256"
        },
        {
          "name": "_maxPlayers",
          "type": "uint256"
        },
        {
          "name": "_tournamentName",
          "type": "string"
        }
      ],
      "name": "createTournament",
      "outputs": [],
      "payable": false,
      "stateMutability": "nonpayable",
      "type": "function"
    },
    {
      "constant": false,
      "inputs": [],
      "name": "startTournament",
      "outputs": [],
      "payable": false,
      "stateMutability": "nonpayable",
      "type": "function"
    },
    {
      "constant": true,
      "inputs": [],
      "name": "getTournament",
      "outputs": [
        {
          "name": "",
          "type": "string"
        },
        {
          "name": "",
          "type": "uint256"
        },
        {
          "name": "",
          "type": "uint256"
        },
        {
          "name": "",
          "type": "uint256"
        },
        {
          "name": "",
          "type": "bool"
        },
        {
          "name": "",
          "type": "bool"
        }
      ],
      "payable": false,
      "stateMutability": "view",
      "type": "function"
    },
    {
      "constant": true,
      "inputs": [],
      "name": "getRoundRobin",
      "outputs": [
        {
          "name": "gamePlan",
          "type": "uint256[36][3]"
        }
      ],
      "payable": false,
      "stateMutability": "view",
      "type": "function"
    },
    {
      "constant": false,
      "inputs": [
        {
          "name": "_matchID",
          "type": "uint256"
        },
        {
          "name": "_winner",
          "type": "uint256"
        },
        {
          "name": "_loser",
          "type": "uint256"
        },
        {
          "name": "_winnerGoals",
          "type": "uint256"
        },
        {
          "name": "_loserGoals",
          "type": "uint256"
        }
      ],
      "name": "decideMatch",
      "outputs": [],
      "payable": false,
      "stateMutability": "nonpayable",
      "type": "function"
    },
    {
      "constant": false,
      "inputs": [
        {
          "name": "_playerName",
          "type": "string"
        }
      ],
      "name": "register",
      "outputs": [
        {
          "name": "reg",
          "type": "bool"
        }
      ],
      "payable": true,
      "stateMutability": "payable",
      "type": "function"
    },
    {
      "constant": true,
      "inputs": [],
      "name": "getPlayerCount",
      "outputs": [
        {
          "name": "count",
          "type": "uint256"
        }
      ],
      "payable": false,
      "stateMutability": "view",
      "type": "function"
    },
    {
      "constant": true,
      "inputs": [
        {
          "name": "_playerAddress",
          "type": "address"
        }
      ],
      "name": "getPlayer",
      "outputs": [
        {
          "name": "pID",
          "type": "uint256"
        },
        {
          "name": "name",
          "type": "string"
        },
        {
          "name": "points",
          "type": "uint256"
        },
        {
          "name": "goals",
          "type": "uint256"
        },
        {
          "name": "counterGoals",
          "type": "uint256"
        }
      ],
      "payable": false,
      "stateMutability": "view",
      "type": "function"
    },
    {
      "constant": true,
      "inputs": [
        {
          "name": "_playerID",
          "type": "uint256"
        }
      ],
      "name": "getPlayerByID",
      "outputs": [
        {
          "name": "addressP",
          "type": "address"
        },
        {
          "name": "name",
          "type": "string"
        },
        {
          "name": "points",
          "type": "uint256"
        },
        {
          "name": "goals",
          "type": "uint256"
        },
        {
          "name": "counterGoals",
          "type": "uint256"
        }
      ],
      "payable": false,
      "stateMutability": "view",
      "type": "function"
    },
    {
      "constant": true,
      "inputs": [
        {
          "name": "_matchID",
          "type": "uint256"
        }
      ],
      "name": "getEncounter",
      "outputs": [
        {
          "name": "winnerID",
          "type": "uint256"
        },
        {
          "name": "loserID",
          "type": "uint256"
        },
        {
          "name": "winnerGoals",
          "type": "uint256"
        },
        {
          "name": "loserGoals",
          "type": "uint256"
        }
      ],
      "payable": false,
      "stateMutability": "view",
      "type": "function"
    },
    {
      "constant": false,
      "inputs": [],
      "name": "kill",
      "outputs": [],
      "payable": false,
      "stateMutability": "nonpayable",
      "type": "function"
    }
  ],
  "bytecode": "0x6060604052341561000f57600080fd5b33600360026101000a81548173ffffffffffffffffffffffffffffffffffffffff021916908373ffffffffffffffffffffffffffffffffffffffff1602179055506114d88061005f6000396000f3006060604052600436106100ba576000357c0100000000000000000000000000000000000000000000000000000000900463ffffffff1680632f723f05146100ca57806341c0e1b51461013e57806342026081146101535780635c12cd4b1461019f5780637270765b1461026d57806373efabaa14610351578063b3e8818514610398578063bdf84ae7146103d8578063bf559d111461042d578063c2e5220614610442578063e76c293e1461046b578063f2c298be14610524575b34156100c557600080fd5b600080fd5b34156100d557600080fd5b6100dd61055f565b604051808260036000925b8184101561012e5782846020020151602460200280838360005b8381101561011d578082015181840152602081019050610102565b5050505090500192600101926100e8565b9250505091505060405180910390f35b341561014957600080fd5b610151610718565b005b341561015e57600080fd5b61017460048080359060200190919050506107ab565b6040518085815260200184815260200183815260200182815260200194505050505060405180910390f35b34156101aa57600080fd5b6101d6600480803573ffffffffffffffffffffffffffffffffffffffff1690602001909190505061081c565b6040518086815260200180602001858152602001848152602001838152602001828103825286818151815260200191508051906020019080838360005b8381101561022e578082015181840152602081019050610213565b50505050905090810190601f16801561025b5780820380516001836020036101000a031916815260200191505b50965050505050505060405180910390f35b341561027857600080fd5b61028e6004808035906020019091905050610a28565b604051808673ffffffffffffffffffffffffffffffffffffffff1673ffffffffffffffffffffffffffffffffffffffff16815260200180602001858152602001848152602001838152602001828103825286818151815260200191508051906020019080838360005b838110156103125780820151818401526020810190506102f7565b50505050905090810190601f16801561033f5780820380516001836020036101000a031916815260200191505b50965050505050505060405180910390f35b341561035c57600080fd5b6103966004808035906020019091908035906020019091908035906020019091908035906020019091908035906020019091905050610c28565b005b34156103a357600080fd5b6103d660048080359060200190919080359060200190919080359060200190820180359060200191909192905050610cc7565b005b34156103e357600080fd5b6103eb610d64565b604051808273ffffffffffffffffffffffffffffffffffffffff1673ffffffffffffffffffffffffffffffffffffffff16815260200191505060405180910390f35b341561043857600080fd5b610440610d8a565b005b341561044d57600080fd5b610455610e4a565b6040518082815260200191505060405180910390f35b341561047657600080fd5b61047e610e57565b60405180806020018781526020018681526020018581526020018415151515815260200183151515158152602001828103825288818151815260200191508051906020019080838360005b838110156104e45780820151818401526020810190506104c9565b50505050905090810190601f1680156105115780820380516001836020036101000a031916815260200191505b5097505050505050505060405180910390f35b61054560048080359060200190820180359060200191909192905050610f4c565b604051808215151515815260200191505060405180910390f35b6105676112ef565b600080600080600080600360029054906101000a900473ffffffffffffffffffffffffffffffffffffffff1673ffffffffffffffffffffffffffffffffffffffff163373ffffffffffffffffffffffffffffffffffffffff161415156105cc57600080fd5b6105d4611192565b95506105de610e4a565b945060019350600190505b858111151561070c57600085828115156105ff57fe5b06141561060e5784925061061d565b848181151561061957fe5b0692505b60008585830181151561062c57fe5b06141561063b5784915061064c565b8484820181151561064857fe5b0691505b8087600060038110151561065c57fe5b60200201516001830360248110151561067157fe5b6020020181815250508287600160038110151561068a57fe5b60200201516001830360248110151561069f57fe5b602002018181525050818760026003811015156106b857fe5b6020020151600183036024811015156106cd57fe5b602002018181525050600085828115156106e357fe5b061480156106f15750600181115b156106ff5783806001019450505b80806001019150506105e9565b86965050505050505090565b600360029054906101000a900473ffffffffffffffffffffffffffffffffffffffff1673ffffffffffffffffffffffffffffffffffffffff163373ffffffffffffffffffffffffffffffffffffffff1614156107a957600360029054906101000a900473ffffffffffffffffffffffffffffffffffffffff1673ffffffffffffffffffffffffffffffffffffffff16ff5b565b600080600080600460008681526020019081526020016000206000015460046000878152602001908152602001600020600101546004600088815260200190815260200160002060020154600460008981526020019081526020016000206003015493509350935093509193509193565b600061082661131e565b6000806000600560008773ffffffffffffffffffffffffffffffffffffffff1673ffffffffffffffffffffffffffffffffffffffff16815260200190815260200160002060000154600560008873ffffffffffffffffffffffffffffffffffffffff1673ffffffffffffffffffffffffffffffffffffffff168152602001908152602001600020600101600560008973ffffffffffffffffffffffffffffffffffffffff1673ffffffffffffffffffffffffffffffffffffffff16815260200190815260200160002060020154600560008a73ffffffffffffffffffffffffffffffffffffffff1673ffffffffffffffffffffffffffffffffffffffff16815260200190815260200160002060030154600560008b73ffffffffffffffffffffffffffffffffffffffff1673ffffffffffffffffffffffffffffffffffffffff16815260200190815260200160002060040154838054600181600116156101000203166002900480601f016020809104026020016040519081016040528092919081815260200182805460018160011615610100020316600290048015610a0e5780601f106109e357610100808354040283529160200191610a0e565b820191906000526020600020905b8154815290600101906020018083116109f157829003601f168201915b505050505093509450945094509450945091939590929450565b6000610a3261131e565b60008060006006600087815260200190815260200160002060009054906101000a900473ffffffffffffffffffffffffffffffffffffffff16945084600560008773ffffffffffffffffffffffffffffffffffffffff1673ffffffffffffffffffffffffffffffffffffffff168152602001908152602001600020600101600560008873ffffffffffffffffffffffffffffffffffffffff1673ffffffffffffffffffffffffffffffffffffffff16815260200190815260200160002060020154600560008973ffffffffffffffffffffffffffffffffffffffff1673ffffffffffffffffffffffffffffffffffffffff16815260200190815260200160002060030154600560008a73ffffffffffffffffffffffffffffffffffffffff1673ffffffffffffffffffffffffffffffffffffffff16815260200190815260200160002060040154838054600181600116156101000203166002900480601f016020809104026020016040519081016040528092919081815260200182805460018160011615610100020316600290048015610c0e5780601f10610be357610100808354040283529160200191610c0e565b820191906000526020600020905b815481529060010190602001808311610bf157829003601f168201915b505050505093509450945094509450945091939590929450565b6000600360029054906101000a900473ffffffffffffffffffffffffffffffffffffffff1673ffffffffffffffffffffffffffffffffffffffff163373ffffffffffffffffffffffffffffffffffffffff16141515610c8657600080fd5b600460008781526020019081526020016000209050848160000181905550838160010181905550828160020181905550818160030181905550505050505050565b600360029054906101000a900473ffffffffffffffffffffffffffffffffffffffff1673ffffffffffffffffffffffffffffffffffffffff163373ffffffffffffffffffffffffffffffffffffffff16141515610d2357600080fd5b6001600360006101000a81548160ff0219169083151502179055508360008190555082600181905550818160029190610d5d929190611332565b5050505050565b600360029054906101000a900473ffffffffffffffffffffffffffffffffffffffff1681565b600360029054906101000a900473ffffffffffffffffffffffffffffffffffffffff1673ffffffffffffffffffffffffffffffffffffffff163373ffffffffffffffffffffffffffffffffffffffff16141515610de657600080fd5b6000600360006101000a81548160ff0219169083151502179055506001600360016101000a81548160ff0219169083151502179055507f1b55ba3aa851a46be3b365aee5b5c140edd620d578922f3e8466d2cbd96f954b60405160405180910390a1565b6000600780549050905090565b610e5f61131e565b600080600080600080610e70610e4a565b9050600260005460015483600360009054906101000a900460ff16600360019054906101000a900460ff16858054600181600116156101000203166002900480601f016020809104026020016040519081016040528092919081815260200182805460018160011615610100020316600290048015610f305780601f10610f0557610100808354040283529160200191610f30565b820191906000526020600020905b815481529060010190602001808311610f1357829003601f168201915b5050505050955096509650965096509650965050909192939495565b6000600360029054906101000a900473ffffffffffffffffffffffffffffffffffffffff1673ffffffffffffffffffffffffffffffffffffffff163373ffffffffffffffffffffffffffffffffffffffff1614151515610fab57600080fd5b6001600360006101000a81548160ff02191690831515021790551515610fd057600080fd5b600154610fdb610e4a565b101515611020577fa13de98824a467bc63f2dc9f0b3d82986798ea1074637a08dcc1bb22f2d628a56001546040518082815260200191505060405180910390a1600080fd5b6000543414156110715761106583838080601f0160208091040260200160405190810160405280939291908181526020018383808284378201915050505050506111bc565b6001905080905061118c565b6000543410156110bb577f4c4e635ca3f567e18560e4c6c2d3e2ff2faf36a078fc0b6efaeb82658057a73734600054036040518082815260200191505060405180910390a1600080fd5b60005434111561118b573373ffffffffffffffffffffffffffffffffffffffff166108fc60005434039081150290604051600060405180830381858888f19350505050151561110957600080fd5b7ffe80ce05e5aab40521b1bcd762d2d0d53b93581678b020d05a76beb0ed8a791760005434036040518082815260200191505060405180910390a161117f83838080601f0160208091040260200160405190810160405280939291908181526020018383808284378201915050505050506111bc565b6001905080905061118c565b5b92915050565b6000600161119e610e4a565b0360026111a9610e4a565b8115156111b257fe5b0402905080905090565b600080600033925060016111ce610e4a565b019150600560008473ffffffffffffffffffffffffffffffffffffffff1673ffffffffffffffffffffffffffffffffffffffff1681526020019081526020016000209050826006600084815260200190815260200160002060006101000a81548173ffffffffffffffffffffffffffffffffffffffff021916908373ffffffffffffffffffffffffffffffffffffffff160217905550818160000181905550838160010190805190602001906112859291906113b2565b506007805480600101828161129a9190611432565b9160005260206000209001600085909190916101000a81548173ffffffffffffffffffffffffffffffffffffffff021916908373ffffffffffffffffffffffffffffffffffffffff1602179055505050505050565b610d80604051908101604052806003905b61130861145e565b8152602001906001900390816113005790505090565b602060405190810160405280600081525090565b828054600181600116156101000203166002900490600052602060002090601f016020900481019282601f1061137357803560ff19168380011785556113a1565b828001600101855582156113a1579182015b828111156113a0578235825591602001919060010190611385565b5b5090506113ae9190611487565b5090565b828054600181600116156101000203166002900490600052602060002090601f016020900481019282601f106113f357805160ff1916838001178555611421565b82800160010185558215611421579182015b82811115611420578251825591602001919060010190611405565b5b50905061142e9190611487565b5090565b815481835581811511611459578183600052602060002091820191016114589190611487565b5b505050565b610480604051908101604052806024905b600081526020019060019003908161146f5790505090565b6114a991905b808211156114a557600081600090555060010161148d565b5090565b905600a165627a7a72305820e41bdb9259bea4aeb3628c43f095b2d160ab04c1452bfb10147fba96dd4576dc0029",
  "source": "pragma solidity ^0.4.18;\r\n\r\n///@title FIFARumble\r\n///@author Marco Dell'Oso - targens\r\n\r\ncontract FIFARumble {\r\n    uint fee;\r\n    uint maxPlayers;\r\n    string tournamentName;\r\n    bool registrationOpen;\r\n    bool tournamentStarted;\r\n    address public gameMaster;\r\n\r\n    struct Player {\r\n        uint pID;\r\n        string name;\r\n        uint points;\r\n        uint goals;\r\n        uint counterGoals;\r\n    }\r\n\r\n    struct Encounter {\r\n        uint winnerID;\r\n        uint loserID;\r\n        uint winnerGoals;\r\n        uint loserGoals;\r\n    }\r\n\r\n    mapping (uint=>Encounter) encounters;\r\n    mapping (address=>Player) players;\r\n    mapping (uint=>address) playerIDs;\r\n    address[] playerAccts;\r\n       \r\n    event InsufficientFee(uint missing);\r\n    event FeeToHigh(uint spare);\r\n    event TournamentFull(uint mP);\r\n    event Start(); \r\n    event MatchDecided(Encounter);\r\n   \r\n     ////modifiers////\r\n    modifier gameMasterOnly {\r\n        require(msg.sender == gameMaster);\r\n        _;\r\n    }\r\n\r\n    modifier playerOnly {\r\n        require(msg.sender != gameMaster);\r\n        _;\r\n    }\r\n\r\n    modifier registrationValid {\r\n        require(registrationOpen = true);\r\n        _;\r\n    }\r\n\r\n\r\n    //fee in ETH\r\n    function createTournament(uint _fee, uint _maxPlayers, string _tournamentName) external gameMasterOnly {\r\n        registrationOpen = true;\r\n        fee = _fee;\r\n        maxPlayers = _maxPlayers;\r\n        tournamentName = _tournamentName;\r\n    }\r\n    \r\n    function startTournament() public gameMasterOnly {\r\n        registrationOpen = false;\r\n        tournamentStarted = true;\r\n        emit Start();\r\n    }\r\n\r\n    function getTournament() external view returns (string, uint, uint, uint, bool, bool) {\r\n        uint i = getPlayerCount();\r\n        return (tournamentName, fee, maxPlayers, i, registrationOpen, tournamentStarted);\r\n    }\r\n\r\n    //for details on tournament systems see: https://en.wikipedia.org/wiki/Category:Tournament_systems \r\n    function getRoundRobin() gameMasterOnly view external returns (uint[36][3] gamePlan) {\r\n        uint nOM = getNumberOfMatches();\r\n        uint nOP = getPlayerCount();\r\n        uint modRound = 1;\r\n        uint p1Temp;\r\n        uint p2Temp;\r\n\r\n        for (uint i = 1; i <= nOM; i++) {\r\n  \r\n            if (i % nOP == 0) {\r\n                p1Temp = nOP;\r\n            } else {\r\n                p1Temp = (i % nOP);\r\n            }\r\n        \r\n            if ((i + modRound) % nOP == 0) {\r\n                p2Temp = nOP;\r\n            } else {\r\n                p2Temp = (i + modRound) % nOP;\r\n            }\r\n            \r\n            gamePlan[0][i - 1] = i;\r\n            gamePlan[1][i - 1] = p1Temp;\r\n            gamePlan[2][i - 1] = p2Temp;           \r\n\r\n            if (i % nOP == 0 && i > 1) {\r\n                modRound ++;\r\n            }\r\n        }\r\n        return gamePlan;\r\n    }   \r\n\r\n    function getNumberOfMatches() internal view returns(uint numberOfMatches) {\r\n        numberOfMatches = getPlayerCount() / 2 * (getPlayerCount() - 1);\r\n        return numberOfMatches;\r\n    }\r\n\r\n    function decideMatch(uint _matchID, uint _winner, uint _loser, uint _winnerGoals, uint _loserGoals) gameMasterOnly external {\r\n\r\n        Encounter storage en = encounters[_matchID];\r\n\r\n        en.winnerID = _winner;\r\n        en.loserID = _loser;\r\n        en.winnerGoals = _winnerGoals;\r\n        en.loserGoals = _loserGoals;\r\n\r\n    }\r\n    ////player functions////\r\n\r\n    function register(string _playerName) playerOnly registrationValid external payable returns(bool reg) {\r\n\r\n        if (getPlayerCount() >= maxPlayers) {\r\n            emit TournamentFull(maxPlayers);\r\n            revert();\r\n        }\r\n\r\n        if (msg.value == fee) {\r\n            setPlayer(_playerName);\r\n            reg = true;\r\n            return reg;\r\n\r\n        } else if (msg.value < fee) {\r\n            emit InsufficientFee(fee - msg.value);\r\n            revert();\r\n\r\n        } else if (msg.value > fee) {\r\n            msg.sender.transfer(msg.value - fee);\r\n            emit FeeToHigh(msg.value - fee);\r\n            setPlayer(_playerName);\r\n            reg = true;\r\n            return reg;\r\n        }       \r\n    }\r\n\r\n    function setPlayer(string _playerName) internal {\r\n        address tempAddress = msg.sender;\r\n        uint tempID = getPlayerCount() + 1;\r\n        Player storage player = players[tempAddress]; \r\n        playerIDs[tempID] = tempAddress;\r\n\r\n        player.pID = tempID;\r\n        player.name = _playerName;\r\n        playerAccts.push(tempAddress);\r\n    }\r\n\r\n    // function setPoints(address _address, uint _points, uint _goals, uint _counterGoals) gameMasterOnly internal {\r\n    //     Player storage player = players[_address];\r\n    //     player.points = player.points + _points;\r\n    //     player.goals = player.goals + _goals;\r\n    //     player.counterGoals = player.counterGoals + _counterGoals;\r\n    // }\r\n\r\n    function getPlayerCount() public constant returns(uint count) {\r\n        return playerAccts.length;\r\n    }\r\n\r\n    function getPlayer(address _playerAddress) view public returns (\r\n        uint pID,\r\n        string name,\r\n        uint points,\r\n        uint goals,\r\n        uint counterGoals)\r\n        {\r\n\r\n        return (\r\n            players[_playerAddress].pID,\r\n            players[_playerAddress].name,\r\n            players[_playerAddress].points,\r\n            players[_playerAddress].goals,\r\n            players[_playerAddress].counterGoals);\r\n    }\r\n\r\n    function getPlayerByID(uint _playerID) view public returns (\r\n        address addressP,\r\n        string name,\r\n        uint points,\r\n        uint goals,\r\n        uint counterGoals)\r\n        {\r\n\r\n        addressP = (playerIDs[_playerID]);\r\n        \r\n        return (\r\n            addressP,\r\n            players[addressP].name,\r\n            players[addressP].points,\r\n            players[addressP].goals,\r\n            players[addressP].counterGoals);\r\n\r\n    }\r\n\r\n    function getEncounter(uint _matchID) view public returns (\r\n        uint winnerID,\r\n        uint loserID,\r\n        uint winnerGoals,\r\n        uint loserGoals) {\r\n\r\n        return (\r\n            encounters[_matchID].winnerID,\r\n            encounters[_matchID].loserID,\r\n            encounters[_matchID].winnerGoals,\r\n            encounters[_matchID].loserGoals\r\n            );\r\n\r\n    }\r\n\r\n    function FIFARumble() public {\r\n        gameMaster = msg.sender;\r\n    } \r\n\r\n    function() public {\r\n        revert();\r\n    } \r\n    \r\n    function kill() public { \r\n        if (msg.sender == gameMaster) {\r\n            selfdestruct(gameMaster);\r\n        }\r\n    }\r\n}\r\n\r\n\r\n\r\n\r\n\r\n\r\n\r\n\r\n",
  "sourcePath": "C:\\Users\\mdelloso\\Workspace\\FIFA\\contracts\\FIFARumble.sol",
  "compiler": {
    "name": "solc",
    "version": "0.4.21+commit.dfe3193c.Emscripten.clang"
  },
  "schemaVersion": "2.0.0",
  "updatedAt": "2018-04-12T15:02:07.187Z"
}