{
  "contractName": "FIFARumble",
  "abi": [
    {
      "constant": true,
      "inputs": [],
      "name": "second",
      "outputs": [
        {
          "name": "",
          "type": "address"
        }
      ],
      "payable": false,
      "stateMutability": "view",
      "type": "function"
    },
    {
      "constant": true,
      "inputs": [],
      "name": "third",
      "outputs": [
        {
          "name": "",
          "type": "address"
        }
      ],
      "payable": false,
      "stateMutability": "view",
      "type": "function"
    },
    {
      "constant": true,
      "inputs": [],
      "name": "gameMaster",
      "outputs": [
        {
          "name": "",
          "type": "address"
        }
      ],
      "payable": false,
      "stateMutability": "view",
      "type": "function"
    },
    {
      "constant": true,
      "inputs": [],
      "name": "winner",
      "outputs": [
        {
          "name": "",
          "type": "address"
        }
      ],
      "payable": false,
      "stateMutability": "view",
      "type": "function"
    },
    {
      "inputs": [],
      "payable": false,
      "stateMutability": "nonpayable",
      "type": "constructor"
    },
    {
      "payable": false,
      "stateMutability": "nonpayable",
      "type": "fallback"
    },
    {
      "anonymous": false,
      "inputs": [
        {
          "indexed": false,
          "name": "missing",
          "type": "uint256"
        }
      ],
      "name": "InsufficientFee",
      "type": "event"
    },
    {
      "anonymous": false,
      "inputs": [
        {
          "indexed": false,
          "name": "spare",
          "type": "uint256"
        }
      ],
      "name": "FeeToHigh",
      "type": "event"
    },
    {
      "anonymous": false,
      "inputs": [
        {
          "indexed": false,
          "name": "mP",
          "type": "uint256"
        }
      ],
      "name": "TournamentFull",
      "type": "event"
    },
    {
      "anonymous": false,
      "inputs": [],
      "name": "Start",
      "type": "event"
    },
    {
      "anonymous": false,
      "inputs": [
        {
          "components": [
            {
              "name": "p1ID",
              "type": "uint256"
            },
            {
              "name": "p2ID",
              "type": "uint256"
            },
            {
              "name": "p1Goals",
              "type": "uint256"
            },
            {
              "name": "p2Goals",
              "type": "uint256"
            },
            {
              "name": "isValue",
              "type": "bool"
            }
          ],
          "indexed": false,
          "name": "",
          "type": "tuple"
        }
      ],
      "name": "MatchDecided",
      "type": "event"
    },
    {
      "constant": false,
      "inputs": [
        {
          "name": "_fee",
          "type": "uint256"
        },
        {
          "name": "_maxPlayers",
          "type": "uint256"
        },
        {
          "name": "_tournamentName",
          "type": "string"
        }
      ],
      "name": "createTournament",
      "outputs": [],
      "payable": false,
      "stateMutability": "nonpayable",
      "type": "function"
    },
    {
      "constant": false,
      "inputs": [],
      "name": "startTournament",
      "outputs": [],
      "payable": false,
      "stateMutability": "nonpayable",
      "type": "function"
    },
    {
      "constant": true,
      "inputs": [],
      "name": "getTournament",
      "outputs": [
        {
          "name": "",
          "type": "string"
        },
        {
          "name": "",
          "type": "uint256"
        },
        {
          "name": "",
          "type": "uint256"
        },
        {
          "name": "",
          "type": "uint256"
        },
        {
          "name": "",
          "type": "bool"
        },
        {
          "name": "",
          "type": "bool"
        }
      ],
      "payable": false,
      "stateMutability": "view",
      "type": "function"
    },
    {
      "constant": false,
      "inputs": [],
      "name": "endTournament",
      "outputs": [],
      "payable": false,
      "stateMutability": "nonpayable",
      "type": "function"
    },
    {
      "constant": true,
      "inputs": [],
      "name": "getRoundRobin",
      "outputs": [
        {
          "name": "gamePlan",
          "type": "uint256[36][3]"
        }
      ],
      "payable": false,
      "stateMutability": "view",
      "type": "function"
    },
    {
      "constant": false,
      "inputs": [
        {
          "name": "_matchID",
          "type": "uint256"
        },
        {
          "name": "_p1",
          "type": "uint256"
        },
        {
          "name": "_p2",
          "type": "uint256"
        },
        {
          "name": "_p1Goals",
          "type": "uint256"
        },
        {
          "name": "_p2Goals",
          "type": "uint256"
        }
      ],
      "name": "decideMatch",
      "outputs": [],
      "payable": false,
      "stateMutability": "nonpayable",
      "type": "function"
    },
    {
      "constant": false,
      "inputs": [
        {
          "name": "_playerName",
          "type": "string"
        }
      ],
      "name": "register",
      "outputs": [
        {
          "name": "reg",
          "type": "bool"
        }
      ],
      "payable": true,
      "stateMutability": "payable",
      "type": "function"
    },
    {
      "constant": true,
      "inputs": [],
      "name": "getPlayerCount",
      "outputs": [
        {
          "name": "count",
          "type": "uint256"
        }
      ],
      "payable": false,
      "stateMutability": "view",
      "type": "function"
    },
    {
      "constant": true,
      "inputs": [
        {
          "name": "_playerAddress",
          "type": "address"
        }
      ],
      "name": "getPlayer",
      "outputs": [
        {
          "name": "pID",
          "type": "uint256"
        },
        {
          "name": "name",
          "type": "string"
        },
        {
          "name": "points",
          "type": "uint256"
        },
        {
          "name": "goals",
          "type": "uint256"
        },
        {
          "name": "counterGoals",
          "type": "uint256"
        }
      ],
      "payable": false,
      "stateMutability": "view",
      "type": "function"
    },
    {
      "constant": true,
      "inputs": [
        {
          "name": "_playerID",
          "type": "uint256"
        }
      ],
      "name": "getPlayerByID",
      "outputs": [
        {
          "name": "addressP",
          "type": "address"
        },
        {
          "name": "name",
          "type": "string"
        },
        {
          "name": "points",
          "type": "uint256"
        },
        {
          "name": "goals",
          "type": "uint256"
        },
        {
          "name": "counterGoals",
          "type": "uint256"
        }
      ],
      "payable": false,
      "stateMutability": "view",
      "type": "function"
    },
    {
      "constant": true,
      "inputs": [
        {
          "name": "_matchID",
          "type": "uint256"
        }
      ],
      "name": "getEncounter",
      "outputs": [
        {
          "name": "p1ID",
          "type": "uint256"
        },
        {
          "name": "p2ID",
          "type": "uint256"
        },
        {
          "name": "p1Goals",
          "type": "uint256"
        },
        {
          "name": "p2Goals",
          "type": "uint256"
        }
      ],
      "payable": false,
      "stateMutability": "view",
      "type": "function"
    },
    {
      "constant": false,
      "inputs": [],
      "name": "kill",
      "outputs": [],
      "payable": false,
      "stateMutability": "nonpayable",
      "type": "function"
    }
  ],
  "bytecode": "0x6060604052341561000f57600080fd5b33600360026101000a81548173ffffffffffffffffffffffffffffffffffffffff021916908373ffffffffffffffffffffffffffffffffffffffff16021790555061189c8061005f6000396000f3006060604052600436106100e6576000357c0100000000000000000000000000000000000000000000000000000000900463ffffffff1680632f723f05146100f657806341c0e1b51461016a578063420260811461017f5780634d633a8f146101cb5780635a8ac02d146101e05780635c12cd4b146102355780637270765b1461030357806373efabaa146103e7578063a6dc67711461042e578063b3e8818514610483578063bdf84ae7146104c3578063bf559d1114610518578063c2e522061461052d578063dfbf53ae14610556578063e76c293e146105ab578063f2c298be14610664575b34156100f157600080fd5b600080fd5b341561010157600080fd5b61010961069f565b604051808260036000925b8184101561015a5782846020020151602460200280838360005b8381101561014957808201518184015260208101905061012e565b505050509050019260010192610114565b9250505091505060405180910390f35b341561017557600080fd5b61017d610858565b005b341561018a57600080fd5b6101a060048080359060200190919050506108eb565b6040518085815260200184815260200183815260200182815260200194505050505060405180910390f35b34156101d657600080fd5b6101de61095c565b005b34156101eb57600080fd5b6101f3610a06565b604051808273ffffffffffffffffffffffffffffffffffffffff1673ffffffffffffffffffffffffffffffffffffffff16815260200191505060405180910390f35b341561024057600080fd5b61026c600480803573ffffffffffffffffffffffffffffffffffffffff16906020019091905050610a2c565b6040518086815260200180602001858152602001848152602001838152602001828103825286818151815260200191508051906020019080838360005b838110156102c45780820151818401526020810190506102a9565b50505050905090810190601f1680156102f15780820380516001836020036101000a031916815260200191505b50965050505050505060405180910390f35b341561030e57600080fd5b6103246004808035906020019091905050610c38565b604051808673ffffffffffffffffffffffffffffffffffffffff1673ffffffffffffffffffffffffffffffffffffffff16815260200180602001858152602001848152602001838152602001828103825286818151815260200191508051906020019080838360005b838110156103a857808201518184015260208101905061038d565b50505050905090810190601f1680156103d55780820380516001836020036101000a031916815260200191505b50965050505050505060405180910390f35b34156103f257600080fd5b61042c6004808035906020019091908035906020019091908035906020019091908035906020019091908035906020019091905050610e38565b005b341561043957600080fd5b610441610f5b565b604051808273ffffffffffffffffffffffffffffffffffffffff1673ffffffffffffffffffffffffffffffffffffffff16815260200191505060405180910390f35b341561048e57600080fd5b6104c160048080359060200190919080359060200190919080359060200190820180359060200191909192905050610f81565b005b34156104ce57600080fd5b6104d661101e565b604051808273ffffffffffffffffffffffffffffffffffffffff1673ffffffffffffffffffffffffffffffffffffffff16815260200191505060405180910390f35b341561052357600080fd5b61052b611044565b005b341561053857600080fd5b610540611104565b6040518082815260200191505060405180910390f35b341561056157600080fd5b610569611111565b604051808273ffffffffffffffffffffffffffffffffffffffff1673ffffffffffffffffffffffffffffffffffffffff16815260200191505060405180910390f35b34156105b657600080fd5b6105be611137565b60405180806020018781526020018681526020018581526020018415151515815260200183151515158152602001828103825288818151815260200191508051906020019080838360005b83811015610624578082015181840152602081019050610609565b50505050905090810190601f1680156106515780820380516001836020036101000a031916815260200191505b5097505050505050505060405180910390f35b6106856004808035906020019082018035906020019190919290505061122c565b604051808215151515815260200191505060405180910390f35b6106a76116b3565b600080600080600080600360029054906101000a900473ffffffffffffffffffffffffffffffffffffffff1673ffffffffffffffffffffffffffffffffffffffff163373ffffffffffffffffffffffffffffffffffffffff1614151561070c57600080fd5b610714611472565b955061071e611104565b945060019350600190505b858111151561084c576000858281151561073f57fe5b06141561074e5784925061075d565b848181151561075957fe5b0692505b60008585830181151561076c57fe5b06141561077b5784915061078c565b8484820181151561078857fe5b0691505b8087600060038110151561079c57fe5b6020020151600183036024811015156107b157fe5b602002018181525050828760016003811015156107ca57fe5b6020020151600183036024811015156107df57fe5b602002018181525050818760026003811015156107f857fe5b60200201516001830360248110151561080d57fe5b6020020181815250506000858281151561082357fe5b061480156108315750600181115b1561083f5783806001019450505b8080600101915050610729565b86965050505050505090565b600360029054906101000a900473ffffffffffffffffffffffffffffffffffffffff1673ffffffffffffffffffffffffffffffffffffffff163373ffffffffffffffffffffffffffffffffffffffff1614156108e957600360029054906101000a900473ffffffffffffffffffffffffffffffffffffffff1673ffffffffffffffffffffffffffffffffffffffff16ff5b565b600080600080600760008681526020019081526020016000206000015460076000878152602001908152602001600020600101546007600088815260200190815260200160002060020154600760008981526020019081526020016000206003015493509350935093509193509193565b6000600360029054906101000a900473ffffffffffffffffffffffffffffffffffffffff1673ffffffffffffffffffffffffffffffffffffffff163373ffffffffffffffffffffffffffffffffffffffff161415156109ba57600080fd5b6000600360016101000a81548160ff021916908315150217905550600090505b6109e2611472565b811015610a03576109f2816108eb565b5050505080806001019150506109da565b50565b600560009054906101000a900473ffffffffffffffffffffffffffffffffffffffff1681565b6000610a366116e2565b6000806000600860008773ffffffffffffffffffffffffffffffffffffffff1673ffffffffffffffffffffffffffffffffffffffff16815260200190815260200160002060000154600860008873ffffffffffffffffffffffffffffffffffffffff1673ffffffffffffffffffffffffffffffffffffffff168152602001908152602001600020600101600860008973ffffffffffffffffffffffffffffffffffffffff1673ffffffffffffffffffffffffffffffffffffffff16815260200190815260200160002060020154600860008a73ffffffffffffffffffffffffffffffffffffffff1673ffffffffffffffffffffffffffffffffffffffff16815260200190815260200160002060030154600860008b73ffffffffffffffffffffffffffffffffffffffff1673ffffffffffffffffffffffffffffffffffffffff16815260200190815260200160002060040154838054600181600116156101000203166002900480601f016020809104026020016040519081016040528092919081815260200182805460018160011615610100020316600290048015610c1e5780601f10610bf357610100808354040283529160200191610c1e565b820191906000526020600020905b815481529060010190602001808311610c0157829003601f168201915b505050505093509450945094509450945091939590929450565b6000610c426116e2565b60008060006009600087815260200190815260200160002060009054906101000a900473ffffffffffffffffffffffffffffffffffffffff16945084600860008773ffffffffffffffffffffffffffffffffffffffff1673ffffffffffffffffffffffffffffffffffffffff168152602001908152602001600020600101600860008873ffffffffffffffffffffffffffffffffffffffff1673ffffffffffffffffffffffffffffffffffffffff16815260200190815260200160002060020154600860008973ffffffffffffffffffffffffffffffffffffffff1673ffffffffffffffffffffffffffffffffffffffff16815260200190815260200160002060030154600860008a73ffffffffffffffffffffffffffffffffffffffff1673ffffffffffffffffffffffffffffffffffffffff16815260200190815260200160002060040154838054600181600116156101000203166002900480601f016020809104026020016040519081016040528092919081815260200182805460018160011615610100020316600290048015610e1e5780601f10610df357610100808354040283529160200191610e1e565b820191906000526020600020905b815481529060010190602001808311610e0157829003601f168201915b505050505093509450945094509450945091939590929450565b6000806000600360029054906101000a900473ffffffffffffffffffffffffffffffffffffffff1673ffffffffffffffffffffffffffffffffffffffff163373ffffffffffffffffffffffffffffffffffffffff16141515610e9957600080fd5b600360019054906101000a900460ff1615610f5157600760008981526020019081526020016000209250868360000181905550858360010181905550848360020181905550838360030181905550610ef087610c38565b505050509150610eff86610c38565b50505050905083851115610f2c57610f1a82600387876114ad565b610f2781600086886114ad565b610f50565b83851015610f4f57610f4181600387876114ad565b610f4e82600086886114ad565b5b5b5b5050505050505050565b600660009054906101000a900473ffffffffffffffffffffffffffffffffffffffff1681565b600360029054906101000a900473ffffffffffffffffffffffffffffffffffffffff1673ffffffffffffffffffffffffffffffffffffffff163373ffffffffffffffffffffffffffffffffffffffff16141515610fdd57600080fd5b6001600360006101000a81548160ff02191690831515021790555083600081905550826001819055508181600291906110179291906116f6565b5050505050565b600360029054906101000a900473ffffffffffffffffffffffffffffffffffffffff1681565b600360029054906101000a900473ffffffffffffffffffffffffffffffffffffffff1673ffffffffffffffffffffffffffffffffffffffff163373ffffffffffffffffffffffffffffffffffffffff161415156110a057600080fd5b6000600360006101000a81548160ff0219169083151502179055506001600360016101000a81548160ff0219169083151502179055507f1b55ba3aa851a46be3b365aee5b5c140edd620d578922f3e8466d2cbd96f954b60405160405180910390a1565b6000600a80549050905090565b600460009054906101000a900473ffffffffffffffffffffffffffffffffffffffff1681565b61113f6116e2565b600080600080600080611150611104565b9050600260005460015483600360009054906101000a900460ff16600360019054906101000a900460ff16858054600181600116156101000203166002900480601f0160208091040260200160405190810160405280929190818152602001828054600181600116156101000203166002900480156112105780601f106111e557610100808354040283529160200191611210565b820191906000526020600020905b8154815290600101906020018083116111f357829003601f168201915b5050505050955096509650965096509650965050909192939495565b6000600360029054906101000a900473ffffffffffffffffffffffffffffffffffffffff1673ffffffffffffffffffffffffffffffffffffffff163373ffffffffffffffffffffffffffffffffffffffff161415151561128b57600080fd5b6001600360006101000a81548160ff021916908315150217905515156112b057600080fd5b6001546112bb611104565b101515611300577fa13de98824a467bc63f2dc9f0b3d82986798ea1074637a08dcc1bb22f2d628a56001546040518082815260200191505060405180910390a1600080fd5b6000543414156113515761134583838080601f016020809104026020016040519081016040528093929190818152602001838380828437820191505050505050611580565b6001905080905061146c565b60005434101561139b577f4c4e635ca3f567e18560e4c6c2d3e2ff2faf36a078fc0b6efaeb82658057a73734600054036040518082815260200191505060405180910390a1600080fd5b60005434111561146b573373ffffffffffffffffffffffffffffffffffffffff166108fc60005434039081150290604051600060405180830381858888f1935050505015156113e957600080fd5b7ffe80ce05e5aab40521b1bcd762d2d0d53b93581678b020d05a76beb0ed8a791760005434036040518082815260200191505060405180910390a161145f83838080601f016020809104026020016040519081016040528093929190818152602001838380828437820191505050505050611580565b6001905080905061146c565b5b92915050565b60006103e86001611481611104565b0360026103e861148f611104565b0281151561149957fe5b04028115156114a457fe5b04905080905090565b6000600360029054906101000a900473ffffffffffffffffffffffffffffffffffffffff1673ffffffffffffffffffffffffffffffffffffffff163373ffffffffffffffffffffffffffffffffffffffff1614151561150b57600080fd5b600860008673ffffffffffffffffffffffffffffffffffffffff1673ffffffffffffffffffffffffffffffffffffffff16815260200190815260200160002090508381600201540181600201819055508281600301540181600301819055508181600401540181600401819055505050505050565b60008060003392506001611592611104565b019150600860008473ffffffffffffffffffffffffffffffffffffffff1673ffffffffffffffffffffffffffffffffffffffff1681526020019081526020016000209050826009600084815260200190815260200160002060006101000a81548173ffffffffffffffffffffffffffffffffffffffff021916908373ffffffffffffffffffffffffffffffffffffffff16021790555081816000018190555083816001019080519060200190611649929190611776565b50600a805480600101828161165e91906117f6565b9160005260206000209001600085909190916101000a81548173ffffffffffffffffffffffffffffffffffffffff021916908373ffffffffffffffffffffffffffffffffffffffff1602179055505050505050565b610d80604051908101604052806003905b6116cc611822565b8152602001906001900390816116c45790505090565b602060405190810160405280600081525090565b828054600181600116156101000203166002900490600052602060002090601f016020900481019282601f1061173757803560ff1916838001178555611765565b82800160010185558215611765579182015b82811115611764578235825591602001919060010190611749565b5b509050611772919061184b565b5090565b828054600181600116156101000203166002900490600052602060002090601f016020900481019282601f106117b757805160ff19168380011785556117e5565b828001600101855582156117e5579182015b828111156117e45782518255916020019190600101906117c9565b5b5090506117f2919061184b565b5090565b81548183558181151161181d5781836000526020600020918201910161181c919061184b565b5b505050565b610480604051908101604052806024905b60008152602001906001900390816118335790505090565b61186d91905b80821115611869576000816000905550600101611851565b5090565b905600a165627a7a72305820202ca2bde8044d7b545b0984e231ec865736f7d1d16751949ecfe807251a1ae70029",
  "source": "pragma solidity ^0.4.18;\r\n\r\n///@title FIFARumble\r\n///@author Marco Dell'Oso - targens\r\n\r\ncontract FIFARumble {\r\n    uint fee;\r\n    uint maxPlayers;\r\n    string tournamentName;\r\n    bool registrationOpen;\r\n    bool tournamentStarted;\r\n    address public gameMaster;\r\n    address public winner;\r\n    address public second;\r\n    address public third;\r\n\r\n    struct Player {\r\n        uint pID;\r\n        string name;\r\n        uint points;\r\n        uint goals;\r\n        uint counterGoals;\r\n    }\r\n\r\n    struct Encounter {\r\n        uint p1ID;\r\n        uint p2ID;\r\n        uint p1Goals;\r\n        uint p2Goals;\r\n        bool isValue;\r\n    }\r\n\r\n    mapping (uint=>Encounter) encounters;\r\n    mapping (address=>Player) players;\r\n    mapping (uint=>address) playerIDs;\r\n    address[] playerAccts;\r\n       \r\n    event InsufficientFee(uint missing);\r\n    event FeeToHigh(uint spare);\r\n    event TournamentFull(uint mP);\r\n    event Start(); \r\n    event MatchDecided(Encounter);\r\n   \r\n     ////modifiers////\r\n    modifier gameMasterOnly {\r\n        require(msg.sender == gameMaster);\r\n        _;\r\n    }\r\n\r\n    modifier playerOnly {\r\n        require(msg.sender != gameMaster);\r\n        _;\r\n    }\r\n\r\n    modifier registrationValid {\r\n        require(registrationOpen = true);\r\n        _;\r\n    }\r\n\r\n    //fee in ETH\r\n    function createTournament(uint _fee, uint _maxPlayers, string _tournamentName) external gameMasterOnly {\r\n        registrationOpen = true;\r\n        fee = _fee;\r\n        maxPlayers = _maxPlayers;\r\n        tournamentName = _tournamentName;\r\n    }\r\n    \r\n    function startTournament() public gameMasterOnly {\r\n        registrationOpen = false;\r\n        tournamentStarted = true;\r\n        emit Start();\r\n    }\r\n\r\n    function getTournament() external view returns (string, uint, uint, uint, bool, bool) {\r\n        uint i = getPlayerCount();\r\n        return (tournamentName, fee, maxPlayers, i, registrationOpen, tournamentStarted);\r\n    }\r\n\r\n    function setPoints(address _address, uint _points, uint _goals, uint _counterGoals) gameMasterOnly internal {\r\n        Player storage player = players[_address];\r\n        player.points = player.points + _points;\r\n        player.goals = player.goals + _goals;\r\n        player.counterGoals = player.counterGoals + _counterGoals;\r\n    }\r\n\r\n    function endTournament() public gameMasterOnly {\r\n        tournamentStarted = false;\r\n\r\n        for (uint i = 0; i < getNumberOfMatches(); i++) {\r\n            getEncounter(i);\r\n            // if ()\r\n        }\r\n    }\r\n\r\n    //for details on tournament systems see: https://en.wikipedia.org/wiki/Category:Tournament_systems \r\n    function getRoundRobin() gameMasterOnly view external returns (uint[36][3] gamePlan) {\r\n        uint nOM = getNumberOfMatches();\r\n        uint nOP = getPlayerCount();\r\n        uint modRound = 1;\r\n        uint p1Temp;\r\n        uint p2Temp;\r\n\r\n        for (uint i = 1; i <= nOM; i++) {\r\n  \r\n            if (i % nOP == 0) {\r\n                p1Temp = nOP;\r\n            } else {\r\n                p1Temp = (i % nOP);\r\n            }\r\n        \r\n            if ((i + modRound) % nOP == 0) {\r\n                p2Temp = nOP;\r\n            } else {\r\n                p2Temp = (i + modRound) % nOP;\r\n            }\r\n            \r\n            gamePlan[0][i - 1] = i;\r\n            gamePlan[1][i - 1] = p1Temp;\r\n            gamePlan[2][i - 1] = p2Temp;           \r\n\r\n            if (i % nOP == 0 && i > 1) {\r\n                modRound ++;\r\n            }\r\n        }\r\n        return gamePlan;\r\n    }   \r\n\r\n    function getNumberOfMatches() internal view returns(uint numberOfMatches) {\r\n        numberOfMatches = ((getPlayerCount() * 1000 ) / 2 * (getPlayerCount() - 1)) / 1000;\r\n        return numberOfMatches;\r\n    }\r\n\r\n    function decideMatch(uint _matchID, uint _p1, uint _p2, uint _p1Goals, uint _p2Goals) gameMasterOnly external {\r\n        if (tournamentStarted) {\r\n            Encounter storage en = encounters[_matchID];\r\n            en.p1ID = _p1;\r\n            en.p2ID = _p2;\r\n            en.p1Goals = _p1Goals;\r\n            en.p2Goals = _p2Goals;\r\n            var (p1, , , , ) = getPlayerByID(_p1);\r\n            var (p2, , , , ) = getPlayerByID(_p2);\r\n            \r\n            if (_p1Goals > _p2Goals) {\r\n                setPoints(p1, 3, _p1Goals, _p2Goals);\r\n                setPoints(p2, 0, _p2Goals, _p1Goals);\r\n            } else if (_p1Goals < _p2Goals) {\r\n                setPoints(p2, 3, _p1Goals, _p2Goals);\r\n                setPoints(p1, 0, _p2Goals, _p1Goals);\r\n            }\r\n        }\r\n    }\r\n\r\n    ////player functions////\r\n\r\n    function register(string _playerName) playerOnly registrationValid external payable returns(bool reg) {\r\n\r\n        if (getPlayerCount() >= maxPlayers) {\r\n            emit TournamentFull(maxPlayers);\r\n            revert();\r\n        }\r\n\r\n        if (msg.value == fee) {\r\n            setPlayer(_playerName);\r\n            reg = true;\r\n            return reg;\r\n\r\n        } else if (msg.value < fee) {\r\n            emit InsufficientFee(fee - msg.value);\r\n            revert();\r\n\r\n        } else if (msg.value > fee) {\r\n            msg.sender.transfer(msg.value - fee);\r\n            emit FeeToHigh(msg.value - fee);\r\n            setPlayer(_playerName);\r\n            reg = true;\r\n            return reg;\r\n        }       \r\n    }\r\n\r\n    function setPlayer(string _playerName) internal {\r\n        address tempAddress = msg.sender;\r\n        uint tempID = getPlayerCount() + 1;\r\n        Player storage player = players[tempAddress]; \r\n        playerIDs[tempID] = tempAddress;\r\n\r\n        player.pID = tempID;\r\n        player.name = _playerName;\r\n        playerAccts.push(tempAddress);\r\n    }\r\n\r\n    function getPlayerCount() public constant returns(uint count) {\r\n        return playerAccts.length;\r\n    }\r\n\r\n    function getPlayer(address _playerAddress) view public returns (\r\n        uint pID,\r\n        string name,\r\n        uint points,\r\n        uint goals,\r\n        uint counterGoals)\r\n        {\r\n\r\n        return (\r\n            players[_playerAddress].pID,\r\n            players[_playerAddress].name,\r\n            players[_playerAddress].points,\r\n            players[_playerAddress].goals,\r\n            players[_playerAddress].counterGoals);\r\n    }\r\n\r\n    function getPlayerByID(uint _playerID) view public returns (\r\n        address addressP,\r\n        string name,\r\n        uint points,\r\n        uint goals,\r\n        uint counterGoals)\r\n        {\r\n        addressP = (playerIDs[_playerID]);     \r\n        return (\r\n            addressP,\r\n            players[addressP].name,\r\n            players[addressP].points,\r\n            players[addressP].goals,\r\n            players[addressP].counterGoals);\r\n\r\n    }\r\n\r\n    function getEncounter(uint _matchID) view public returns (\r\n        uint p1ID,\r\n        uint p2ID,\r\n        uint p1Goals,\r\n        uint p2Goals) {\r\n\r\n        return (\r\n            encounters[_matchID].p1ID,\r\n            encounters[_matchID].p2ID,\r\n            encounters[_matchID].p1Goals,\r\n            encounters[_matchID].p2Goals\r\n            );\r\n\r\n    }\r\n\r\n    function FIFARumble() public {\r\n        gameMaster = msg.sender;\r\n    } \r\n\r\n    function() public {\r\n        revert();\r\n    } \r\n    \r\n    function kill() public { \r\n        if (msg.sender == gameMaster) {\r\n            selfdestruct(gameMaster);\r\n        }\r\n    }\r\n}\r\n\r\n\r\n\r\n\r\n\r\n\r\n\r\n\r\n",
  "sourcePath": "C:\\Users\\mdelloso\\Workspace\\FIFA\\contracts\\FIFARumble.sol",
  "compiler": {
    "name": "solc",
    "version": "0.4.21+commit.dfe3193c.Emscripten.clang"
  },
  "schemaVersion": "2.0.0",
  "updatedAt": "2018-04-17T15:13:49.850Z"
}