{
  "contractName": "FIFARumble",
  "abi": [
    {
      "constant": true,
      "inputs": [],
      "name": "gameMaster",
      "outputs": [
        {
          "name": "",
          "type": "address"
        }
      ],
      "payable": false,
      "stateMutability": "view",
      "type": "function"
    },
    {
      "inputs": [],
      "payable": false,
      "stateMutability": "nonpayable",
      "type": "constructor"
    },
    {
      "payable": false,
      "stateMutability": "nonpayable",
      "type": "fallback"
    },
    {
      "anonymous": false,
      "inputs": [
        {
          "indexed": false,
          "name": "missing",
          "type": "uint256"
        }
      ],
      "name": "InsufficientFee",
      "type": "event"
    },
    {
      "anonymous": false,
      "inputs": [
        {
          "indexed": false,
          "name": "spare",
          "type": "uint256"
        }
      ],
      "name": "FeeToHigh",
      "type": "event"
    },
    {
      "anonymous": false,
      "inputs": [
        {
          "indexed": false,
          "name": "mP",
          "type": "uint256"
        }
      ],
      "name": "TournamentFull",
      "type": "event"
    },
    {
      "anonymous": false,
      "inputs": [
        {
          "indexed": false,
          "name": "nOM",
          "type": "uint256"
        }
      ],
      "name": "TooManyPlayers",
      "type": "event"
    },
    {
      "constant": false,
      "inputs": [
        {
          "name": "_fee",
          "type": "uint256"
        },
        {
          "name": "_maxPlayers",
          "type": "uint256"
        },
        {
          "name": "_tournamentName",
          "type": "string"
        }
      ],
      "name": "createTournament",
      "outputs": [],
      "payable": false,
      "stateMutability": "nonpayable",
      "type": "function"
    },
    {
      "constant": false,
      "inputs": [],
      "name": "startTournament",
      "outputs": [
        {
          "name": "gamePlan",
          "type": "uint256[15][6]"
        }
      ],
      "payable": false,
      "stateMutability": "nonpayable",
      "type": "function"
    },
    {
      "constant": true,
      "inputs": [],
      "name": "getTournament",
      "outputs": [
        {
          "name": "",
          "type": "string"
        },
        {
          "name": "",
          "type": "uint256"
        },
        {
          "name": "",
          "type": "uint256"
        },
        {
          "name": "",
          "type": "uint256"
        }
      ],
      "payable": false,
      "stateMutability": "view",
      "type": "function"
    },
    {
      "constant": false,
      "inputs": [
        {
          "name": "_matchID",
          "type": "uint256"
        },
        {
          "name": "_winner",
          "type": "uint256"
        },
        {
          "name": "_loser",
          "type": "uint256"
        },
        {
          "name": "_winnerGoals",
          "type": "uint256"
        },
        {
          "name": "_loserGoals",
          "type": "uint256"
        }
      ],
      "name": "decideMatch",
      "outputs": [],
      "payable": false,
      "stateMutability": "nonpayable",
      "type": "function"
    },
    {
      "constant": false,
      "inputs": [
        {
          "name": "_playerName",
          "type": "string"
        },
        {
          "name": "_club",
          "type": "string"
        }
      ],
      "name": "register",
      "outputs": [
        {
          "name": "reg",
          "type": "bool"
        }
      ],
      "payable": true,
      "stateMutability": "payable",
      "type": "function"
    },
    {
      "constant": true,
      "inputs": [],
      "name": "getPlayerCount",
      "outputs": [
        {
          "name": "count",
          "type": "uint256"
        }
      ],
      "payable": false,
      "stateMutability": "view",
      "type": "function"
    },
    {
      "constant": true,
      "inputs": [
        {
          "name": "_playerAddress",
          "type": "address"
        }
      ],
      "name": "getPlayer",
      "outputs": [
        {
          "name": "pID",
          "type": "uint256"
        },
        {
          "name": "name",
          "type": "string"
        },
        {
          "name": "club",
          "type": "string"
        },
        {
          "name": "points",
          "type": "uint256"
        },
        {
          "name": "goals",
          "type": "uint256"
        },
        {
          "name": "counterGoals",
          "type": "uint256"
        }
      ],
      "payable": false,
      "stateMutability": "view",
      "type": "function"
    },
    {
      "constant": true,
      "inputs": [
        {
          "name": "_playerID",
          "type": "uint256"
        }
      ],
      "name": "getPlayerByID",
      "outputs": [
        {
          "name": "",
          "type": "address"
        }
      ],
      "payable": false,
      "stateMutability": "view",
      "type": "function"
    },
    {
      "constant": false,
      "inputs": [],
      "name": "kill",
      "outputs": [],
      "payable": false,
      "stateMutability": "nonpayable",
      "type": "function"
    }
  ],
  "bytecode": "0x6060604052341561000f57600080fd5b33600360016101000a81548173ffffffffffffffffffffffffffffffffffffffff021916908373ffffffffffffffffffffffffffffffffffffffff1602179055506113078061005f6000396000f3006060604052600436106100a4576000357c0100000000000000000000000000000000000000000000000000000000900463ffffffff1680633ffbd47f146100b457806341c0e1b5146101035780635c12cd4b146101185780637270765b1461025257806373efabaa146102b5578063b3e88185146102fc578063bdf84ae71461033c578063bf559d1114610391578063c2e5220614610405578063e76c293e1461042e575b34156100af57600080fd5b600080fd5b6100e96004808035906020019082018035906020019190919290803590602001908201803590602001919091929050506104d1565b604051808215151515815260200191505060405180910390f35b341561010e57600080fd5b61011661077f565b005b341561012357600080fd5b61014f600480803573ffffffffffffffffffffffffffffffffffffffff16906020019091905050610812565b604051808781526020018060200180602001868152602001858152602001848152602001838103835288818151815260200191508051906020019080838360005b838110156101ab578082015181840152602081019050610190565b50505050905090810190601f1680156101d85780820380516001836020036101000a031916815260200191505b50838103825287818151815260200191508051906020019080838360005b838110156102115780820151818401526020810190506101f6565b50505050905090810190601f16801561023e5780820380516001836020036101000a031916815260200191505b509850505050505050505060405180910390f35b341561025d57600080fd5b6102736004808035906020019091905050610b06565b604051808273ffffffffffffffffffffffffffffffffffffffff1673ffffffffffffffffffffffffffffffffffffffff16815260200191505060405180910390f35b34156102c057600080fd5b6102fa6004808035906020019091908035906020019091908035906020019091908035906020019091908035906020019091905050610b43565b005b341561030757600080fd5b61033a60048080359060200190919080359060200190919080359060200190820180359060200191909192905050610be2565b005b341561034757600080fd5b61034f610c7f565b604051808273ffffffffffffffffffffffffffffffffffffffff1673ffffffffffffffffffffffffffffffffffffffff16815260200191505060405180910390f35b341561039c57600080fd5b6103a4610ca5565b604051808260066000925b818410156103f55782846020020151600f60200280838360005b838110156103e45780820151818401526020810190506103c9565b5050505090500192600101926103af565b9250505091505060405180910390f35b341561041057600080fd5b610418610d31565b6040518082815260200191505060405180910390f35b341561043957600080fd5b610441610d3e565b6040518080602001858152602001848152602001838152602001828103825286818151815260200191508051906020019080838360005b83811015610493578082015181840152602081019050610478565b50505050905090810190601f1680156104c05780820380516001836020036101000a031916815260200191505b509550505050505060405180910390f35b6000600360019054906101000a900473ffffffffffffffffffffffffffffffffffffffff1673ffffffffffffffffffffffffffffffffffffffff163373ffffffffffffffffffffffffffffffffffffffff161415151561053057600080fd5b6001600360006101000a81548160ff0219169083151502179055151561055557600080fd5b600154610560610d31565b1015156105a5577fa13de98824a467bc63f2dc9f0b3d82986798ea1074637a08dcc1bb22f2d628a56001546040518082815260200191505060405180910390a1600080fd5b6000543414156106295761061d85858080601f01602080910402602001604051908101604052809392919081815260200183838082843782019150505050505084848080601f016020809104026020016040519081016040528093929190818152602001838380828437820191505050505050610e0a565b60019050809050610777565b600054341015610673577f4c4e635ca3f567e18560e4c6c2d3e2ff2faf36a078fc0b6efaeb82658057a73734600054036040518082815260200191505060405180910390a1600080fd5b600054341115610776573373ffffffffffffffffffffffffffffffffffffffff166108fc60005434039081150290604051600060405180830381858888f1935050505015156106c157600080fd5b7ffe80ce05e5aab40521b1bcd762d2d0d53b93581678b020d05a76beb0ed8a791760005434036040518082815260200191505060405180910390a161076a85858080601f01602080910402602001604051908101604052809392919081815260200183838082843782019150505050505084848080601f016020809104026020016040519081016040528093929190818152602001838380828437820191505050505050610e0a565b60019050809050610777565b5b949350505050565b600360019054906101000a900473ffffffffffffffffffffffffffffffffffffffff1673ffffffffffffffffffffffffffffffffffffffff163373ffffffffffffffffffffffffffffffffffffffff16141561081057600360019054906101000a900473ffffffffffffffffffffffffffffffffffffffff1673ffffffffffffffffffffffffffffffffffffffff16ff5b565b600061081c61111e565b61082461111e565b6000806000600560008873ffffffffffffffffffffffffffffffffffffffff1673ffffffffffffffffffffffffffffffffffffffff16815260200190815260200160002060000154600560008973ffffffffffffffffffffffffffffffffffffffff1673ffffffffffffffffffffffffffffffffffffffff168152602001908152602001600020600101600560008a73ffffffffffffffffffffffffffffffffffffffff1673ffffffffffffffffffffffffffffffffffffffff168152602001908152602001600020600201600560008b73ffffffffffffffffffffffffffffffffffffffff1673ffffffffffffffffffffffffffffffffffffffff16815260200190815260200160002060030154600560008c73ffffffffffffffffffffffffffffffffffffffff1673ffffffffffffffffffffffffffffffffffffffff16815260200190815260200160002060040154600560008d73ffffffffffffffffffffffffffffffffffffffff1673ffffffffffffffffffffffffffffffffffffffff16815260200190815260200160002060050154848054600181600116156101000203166002900480601f016020809104026020016040519081016040528092919081815260200182805460018160011615610100020316600290048015610a4e5780601f10610a2357610100808354040283529160200191610a4e565b820191906000526020600020905b815481529060010190602001808311610a3157829003601f168201915b50505050509450838054600181600116156101000203166002900480601f016020809104026020016040519081016040528092919081815260200182805460018160011615610100020316600290048015610aea5780601f10610abf57610100808354040283529160200191610aea565b820191906000526020600020905b815481529060010190602001808311610acd57829003601f168201915b5050505050935095509550955095509550955091939550919395565b60006006600083815260200190815260200160002060009054906101000a900473ffffffffffffffffffffffffffffffffffffffff169050919050565b6000600360019054906101000a900473ffffffffffffffffffffffffffffffffffffffff1673ffffffffffffffffffffffffffffffffffffffff163373ffffffffffffffffffffffffffffffffffffffff16141515610ba157600080fd5b600460008781526020019081526020016000209050848160000181905550838160010181905550828160020181905550818160030181905550505050505050565b600360019054906101000a900473ffffffffffffffffffffffffffffffffffffffff1673ffffffffffffffffffffffffffffffffffffffff163373ffffffffffffffffffffffffffffffffffffffff16141515610c3e57600080fd5b6001600360006101000a81548160ff0219169083151502179055508360008190555082600181905550818160029190610c78929190611132565b5050505050565b600360019054906101000a900473ffffffffffffffffffffffffffffffffffffffff1681565b610cad6111b2565b600360019054906101000a900473ffffffffffffffffffffffffffffffffffffffff1673ffffffffffffffffffffffffffffffffffffffff163373ffffffffffffffffffffffffffffffffffffffff16141515610d0957600080fd5b6000600360006101000a81548160ff021916908315150217905550610d2c610f3b565b905090565b6000600780549050905090565b610d4661111e565b600080600080610d54610d31565b9050600260005460015483838054600181600116156101000203166002900480601f016020809104026020016040519081016040528092919081815260200182805460018160011615610100020316600290048015610df45780601f10610dc957610100808354040283529160200191610df4565b820191906000526020600020905b815481529060010190602001808311610dd757829003601f168201915b5050505050935094509450945094505090919293565b60008060003392506001610e1c610d31565b019150600560008473ffffffffffffffffffffffffffffffffffffffff1673ffffffffffffffffffffffffffffffffffffffff16815260200190815260200160002090506006600083815260200190815260200160002060009054906101000a900473ffffffffffffffffffffffffffffffffffffffff16925081816000018190555084816001019080519060200190610eb79291906111e1565b5083816002019080519060200190610ed09291906111e1565b5060078054806001018281610ee59190611261565b9160005260206000209001600085909190916101000a81548173ffffffffffffffffffffffffffffffffffffffff021916908373ffffffffffffffffffffffffffffffffffffffff160217905550505050505050565b610f436111b2565b600080600080600080600360019054906101000a900473ffffffffffffffffffffffffffffffffffffffff1673ffffffffffffffffffffffffffffffffffffffff163373ffffffffffffffffffffffffffffffffffffffff16141515610fa857600080fd5b610fb06110f4565b9550610fba610d31565b945060019350600190505b85811115156110e85760008582811515610fdb57fe5b061415610fea57849250610ff9565b8481811515610ff557fe5b0692505b60008585830181151561100857fe5b06141561101757849150611028565b8484820181151561102457fe5b0691505b8087600060068110151561103857fe5b602002015160018303600f8110151561104d57fe5b6020020181815250508287600160068110151561106657fe5b602002015160018303600f8110151561107b57fe5b6020020181815250508187600260068110151561109457fe5b602002015160018303600f811015156110a957fe5b602002018181525050600085828115156110bf57fe5b061480156110cd5750600181115b156110db5783806001019450505b8080600101915050610fc5565b86965050505050505090565b60006001611100610d31565b03600261110b610d31565b81151561111457fe5b0402905080905090565b602060405190810160405280600081525090565b828054600181600116156101000203166002900490600052602060002090601f016020900481019282601f1061117357803560ff19168380011785556111a1565b828001600101855582156111a1579182015b828111156111a0578235825591602001919060010190611185565b5b5090506111ae919061128d565b5090565b610b40604051908101604052806006905b6111cb6112b2565b8152602001906001900390816111c35790505090565b828054600181600116156101000203166002900490600052602060002090601f016020900481019282601f1061122257805160ff1916838001178555611250565b82800160010185558215611250579182015b8281111561124f578251825591602001919060010190611234565b5b50905061125d919061128d565b5090565b81548183558181151161128857818360005260206000209182019101611287919061128d565b5b505050565b6112af91905b808211156112ab576000816000905550600101611293565b5090565b90565b6101e060405190810160405280600f905b60008152602001906001900390816112c357905050905600a165627a7a723058209c70596a27b2f1aa8767d351752a12cea8c3989476cf965b7442a6d2e07ec97d0029",
  "source": "pragma solidity ^0.4.18;\r\n\r\n///@title FIFARumble\r\n///@author Marco Dell'Oso - targens\r\n\r\ncontract FIFARumble {\r\n    uint fee;\r\n    uint maxPlayers;\r\n    string tournamentName;\r\n    bool registrationOpen;\r\n    address public gameMaster;\r\n\r\n    struct Player {\r\n        uint pID;\r\n        string name;\r\n        string club;\r\n        uint points;\r\n        uint goals;\r\n        uint counterGoals;\r\n    }\r\n\r\n    struct Encounter {\r\n        uint winnerID;\r\n        uint loserID;\r\n        uint winnerGoals;\r\n        uint loserGoals;\r\n    }\r\n\r\n    mapping (uint=>Encounter) encounters;\r\n    mapping (address=>Player) players;\r\n    mapping (uint=>address) playerIDs;\r\n    address[] playerAccts;\r\n       \r\n    event InsufficientFee(uint missing);\r\n    event FeeToHigh(uint spare);\r\n    event TournamentFull(uint mP);\r\n    event TooManyPlayers(uint nOM); \r\n   \r\n    //fee in ETH\r\n    function createTournament(uint _fee, uint _maxPlayers, string _tournamentName) external gameMasterOnly {\r\n        registrationOpen = true;\r\n        fee = _fee;\r\n        maxPlayers = _maxPlayers;\r\n        tournamentName = _tournamentName;\r\n    }\r\n    \r\n    function startTournament() external gameMasterOnly returns(uint[15][6] gamePlan) {\r\n        registrationOpen = false;\r\n        \r\n        //more tournament types to come\r\n        gamePlan = getRoundRobin();\r\n    }\r\n\r\n    // function endTournament() public {\r\n\r\n    // }\r\n\r\n    function getTournament() external view returns (string, uint, uint, uint) {\r\n        uint i = getPlayerCount();\r\n        return (tournamentName, fee, maxPlayers, i);\r\n    }\r\n\r\n    //for details on tournament systems see: https://en.wikipedia.org/wiki/Category:Tournament_systems \r\n    function getRoundRobin() gameMasterOnly view internal returns (uint[15][6] gamePlan) {\r\n        uint nOM = getNumberOfMatches();\r\n        uint nOP = getPlayerCount();\r\n        uint modRound = 1;\r\n        uint p1Temp;\r\n        uint p2Temp;\r\n\r\n        for (uint i = 1; i <= nOM; i++) {\r\n  \r\n            if (i % nOP == 0) {\r\n                p1Temp = nOP;\r\n            } else {\r\n                p1Temp = (i % nOP);\r\n            }\r\n        \r\n            if ((i + modRound) % nOP == 0) {\r\n                p2Temp = nOP;\r\n            } else {\r\n                p2Temp = (i + modRound) % nOP;\r\n            }\r\n            \r\n            gamePlan[0][i - 1] = i;\r\n            gamePlan[1][i - 1] = p1Temp;\r\n            gamePlan[2][i - 1] = p2Temp;            \r\n\r\n            if (i % nOP == 0 && i > 1) {\r\n                modRound ++;\r\n            }\r\n \r\n        }\r\n\r\n    return gamePlan;\r\n    }   \r\n\r\n    function getNumberOfMatches() internal view returns(uint numberOfMatches) {\r\n        numberOfMatches = getPlayerCount() / 2 * (getPlayerCount() - 1);\r\n        return numberOfMatches;\r\n    }\r\n\r\n    function decideMatch(uint _matchID, uint _winner, uint _loser, uint _winnerGoals, uint _loserGoals) gameMasterOnly external {\r\n\r\n        Encounter storage e = encounters[_matchID];\r\n\r\n        e.winnerID = _winner;\r\n        e.loserID = _loser;\r\n        e.winnerGoals = _winnerGoals;\r\n        e.loserGoals = _loserGoals;\r\n\r\n    }\r\n    ////player functions////\r\n\r\n    function register(string _playerName, string _club) playerOnly registrationValid external payable returns(bool reg) {\r\n\r\n        if (getPlayerCount() >= maxPlayers) {\r\n            TournamentFull(maxPlayers);\r\n            revert();\r\n        }\r\n\r\n        if (msg.value == fee) {\r\n            setPlayer(_playerName, _club);\r\n            reg = true;\r\n            return reg;\r\n\r\n        } else if (msg.value < fee) {\r\n            InsufficientFee(fee - msg.value);\r\n            revert();\r\n\r\n        } else if (msg.value > fee) {\r\n            msg.sender.transfer(msg.value - fee);\r\n            FeeToHigh(msg.value - fee);\r\n            setPlayer(_playerName, _club);\r\n            reg = true;\r\n            return reg;\r\n        }       \r\n    }\r\n\r\n    function setPlayer(string _playerName, string _club) internal {\r\n        address tempAddress = msg.sender;\r\n        uint tempID = getPlayerCount() + 1;\r\n        Player storage player = players[tempAddress]; \r\n        tempAddress = playerIDs[tempID];\r\n\r\n        player.pID = tempID;\r\n        player.name = _playerName;\r\n        player.club = _club;\r\n        playerAccts.push(tempAddress);\r\n    }\r\n\r\n    // function setPoints(address _address, uint _points, uint _goals, uint _counterGoals) gameMasterOnly internal {\r\n    //     Player storage player = players[_address];\r\n    //     player.points = player.points + _points;\r\n    //     player.goals = player.goals + _goals;\r\n    //     player.counterGoals = player.counterGoals + _counterGoals;\r\n    // }\r\n\r\n    function getPlayerCount() public constant returns(uint count) {\r\n        return playerAccts.length;\r\n    }\r\n\r\n    function getPlayer(address _playerAddress) view public returns (\r\n        uint pID,\r\n        string name,\r\n        string club,\r\n        uint points,\r\n        uint goals,\r\n        uint counterGoals)\r\n        {\r\n\r\n        return (\r\n            players[_playerAddress].pID,\r\n            players[_playerAddress].name,\r\n            players[_playerAddress].club,\r\n            players[_playerAddress].points,\r\n            players[_playerAddress].goals,\r\n            players[_playerAddress].counterGoals);\r\n    }\r\n\r\n    function getPlayerByID(uint _playerID) view public returns (address) {\r\n        \r\n        return (playerIDs[_playerID]);\r\n\r\n        }\r\n\r\n    ////modifiers////\r\n\r\n    modifier gameMasterOnly {\r\n        require(msg.sender == gameMaster);\r\n        _;\r\n    }\r\n\r\n    modifier playerOnly {\r\n        require(msg.sender != gameMaster);\r\n        _;\r\n    }\r\n\r\n    modifier registrationValid {\r\n        require(registrationOpen = true);\r\n        _;\r\n    }\r\n\r\n    function FIFARumble() public {\r\n        gameMaster = msg.sender;\r\n    }\r\n\r\n    function() public {\r\n        revert();\r\n    } \r\n    \r\n    function kill() public { \r\n        if (msg.sender == gameMaster) {\r\n            selfdestruct(gameMaster);\r\n        }\r\n    }\r\n}\r\n\r\n\r\n\r\n\r\n\r\n\r\n\r\n\r\n",
  "sourcePath": "C:\\Users\\mdelloso\\Workspace\\FIFA\\contracts\\FIFARumble.sol",
  "compiler": {
    "name": "solc",
    "version": "0.4.19+commit.c4cbbb05.Emscripten.clang"
  },
  "schemaVersion": "2.0.0",
  "updatedAt": "2018-03-26T14:44:28.832Z"
}