{
  "contractName": "FIFARumble",
  "abi": [
    {
      "constant": true,
      "inputs": [],
      "name": "gameMaster",
      "outputs": [
        {
          "name": "",
          "type": "address"
        }
      ],
      "payable": false,
      "stateMutability": "view",
      "type": "function"
    },
    {
      "inputs": [],
      "payable": false,
      "stateMutability": "nonpayable",
      "type": "constructor"
    },
    {
      "payable": false,
      "stateMutability": "nonpayable",
      "type": "fallback"
    },
    {
      "anonymous": false,
      "inputs": [
        {
          "indexed": false,
          "name": "missing",
          "type": "uint256"
        }
      ],
      "name": "InsufficientFee",
      "type": "event"
    },
    {
      "anonymous": false,
      "inputs": [
        {
          "indexed": false,
          "name": "spare",
          "type": "uint256"
        }
      ],
      "name": "FeeToHigh",
      "type": "event"
    },
    {
      "anonymous": false,
      "inputs": [
        {
          "indexed": false,
          "name": "mP",
          "type": "uint256"
        }
      ],
      "name": "TournamentFull",
      "type": "event"
    },
    {
      "anonymous": false,
      "inputs": [],
      "name": "Start",
      "type": "event"
    },
    {
      "anonymous": false,
      "inputs": [
        {
          "components": [
            {
              "name": "p1ID",
              "type": "uint256"
            },
            {
              "name": "p2ID",
              "type": "uint256"
            },
            {
              "name": "p1Goals",
              "type": "uint256"
            },
            {
              "name": "p2Goals",
              "type": "uint256"
            }
          ],
          "indexed": false,
          "name": "",
          "type": "tuple"
        }
      ],
      "name": "MatchDecided",
      "type": "event"
    },
    {
      "constant": false,
      "inputs": [
        {
          "name": "_fee",
          "type": "uint256"
        },
        {
          "name": "_maxPlayers",
          "type": "uint256"
        },
        {
          "name": "_tournamentName",
          "type": "string"
        }
      ],
      "name": "createTournament",
      "outputs": [],
      "payable": false,
      "stateMutability": "nonpayable",
      "type": "function"
    },
    {
      "constant": false,
      "inputs": [],
      "name": "startTournament",
      "outputs": [],
      "payable": false,
      "stateMutability": "nonpayable",
      "type": "function"
    },
    {
      "constant": true,
      "inputs": [],
      "name": "getTournament",
      "outputs": [
        {
          "name": "",
          "type": "string"
        },
        {
          "name": "",
          "type": "uint256"
        },
        {
          "name": "",
          "type": "uint256"
        },
        {
          "name": "",
          "type": "uint256"
        },
        {
          "name": "",
          "type": "bool"
        },
        {
          "name": "",
          "type": "bool"
        }
      ],
      "payable": false,
      "stateMutability": "view",
      "type": "function"
    },
    {
      "constant": true,
      "inputs": [],
      "name": "getRoundRobin",
      "outputs": [
        {
          "name": "gamePlan",
          "type": "uint256[36][3]"
        }
      ],
      "payable": false,
      "stateMutability": "view",
      "type": "function"
    },
    {
      "constant": false,
      "inputs": [
        {
          "name": "_matchID",
          "type": "uint256"
        },
        {
          "name": "_p1",
          "type": "uint256"
        },
        {
          "name": "_p2",
          "type": "uint256"
        },
        {
          "name": "_p1Goals",
          "type": "uint256"
        },
        {
          "name": "_p2Goals",
          "type": "uint256"
        }
      ],
      "name": "decideMatch",
      "outputs": [],
      "payable": false,
      "stateMutability": "nonpayable",
      "type": "function"
    },
    {
      "constant": false,
      "inputs": [
        {
          "name": "_playerName",
          "type": "string"
        }
      ],
      "name": "register",
      "outputs": [
        {
          "name": "reg",
          "type": "bool"
        }
      ],
      "payable": true,
      "stateMutability": "payable",
      "type": "function"
    },
    {
      "constant": true,
      "inputs": [],
      "name": "getPlayerCount",
      "outputs": [
        {
          "name": "count",
          "type": "uint256"
        }
      ],
      "payable": false,
      "stateMutability": "view",
      "type": "function"
    },
    {
      "constant": true,
      "inputs": [
        {
          "name": "_playerAddress",
          "type": "address"
        }
      ],
      "name": "getPlayer",
      "outputs": [
        {
          "name": "pID",
          "type": "uint256"
        },
        {
          "name": "name",
          "type": "string"
        }
      ],
      "payable": false,
      "stateMutability": "view",
      "type": "function"
    },
    {
      "constant": true,
      "inputs": [
        {
          "name": "_playerID",
          "type": "uint256"
        }
      ],
      "name": "getPlayerByID",
      "outputs": [
        {
          "name": "addressP",
          "type": "address"
        },
        {
          "name": "name",
          "type": "string"
        }
      ],
      "payable": false,
      "stateMutability": "view",
      "type": "function"
    },
    {
      "constant": true,
      "inputs": [
        {
          "name": "_matchID",
          "type": "uint256"
        }
      ],
      "name": "getEncounter",
      "outputs": [
        {
          "name": "p1ID",
          "type": "uint256"
        },
        {
          "name": "p2ID",
          "type": "uint256"
        },
        {
          "name": "p1Goals",
          "type": "uint256"
        },
        {
          "name": "p2Goals",
          "type": "uint256"
        }
      ],
      "payable": false,
      "stateMutability": "view",
      "type": "function"
    },
    {
      "constant": false,
      "inputs": [],
      "name": "kill",
      "outputs": [],
      "payable": false,
      "stateMutability": "nonpayable",
      "type": "function"
    }
  ],
  "bytecode": "0x6060604052341561000f57600080fd5b33600360026101000a81548173ffffffffffffffffffffffffffffffffffffffff021916908373ffffffffffffffffffffffffffffffffffffffff1602179055506112fe8061005f6000396000f3006060604052600436106100ba576000357c0100000000000000000000000000000000000000000000000000000000900463ffffffff1680632f723f05146100ca57806341c0e1b51461013e57806342026081146101535780635c12cd4b1461019f5780637270765b1461025857806373efabaa14610327578063b3e881851461036e578063bdf84ae7146103ae578063bf559d1114610403578063c2e5220614610418578063e76c293e14610441578063f2c298be146104fa575b34156100c557600080fd5b600080fd5b34156100d557600080fd5b6100dd610535565b604051808260036000925b8184101561012e5782846020020151602460200280838360005b8381101561011d578082015181840152602081019050610102565b5050505090500192600101926100e8565b9250505091505060405180910390f35b341561014957600080fd5b6101516106ee565b005b341561015e57600080fd5b6101746004808035906020019091905050610781565b6040518085815260200184815260200183815260200182815260200194505050505060405180910390f35b34156101aa57600080fd5b6101d6600480803573ffffffffffffffffffffffffffffffffffffffff169060200190919050506107f2565b6040518083815260200180602001828103825283818151815260200191508051906020019080838360005b8381101561021c578082015181840152602081019050610201565b50505050905090810190601f1680156102495780820380516001836020036101000a031916815260200191505b50935050505060405180910390f35b341561026357600080fd5b6102796004808035906020019091905050610926565b604051808373ffffffffffffffffffffffffffffffffffffffff1673ffffffffffffffffffffffffffffffffffffffff16815260200180602001828103825283818151815260200191508051906020019080838360005b838110156102eb5780820151818401526020810190506102d0565b50505050905090810190601f1680156103185780820380516001836020036101000a031916815260200191505b50935050505060405180910390f35b341561033257600080fd5b61036c6004808035906020019091908035906020019091908035906020019091908035906020019091908035906020019091905050610a4e565b005b341561037957600080fd5b6103ac60048080359060200190919080359060200190919080359060200190820180359060200191909192905050610aed565b005b34156103b957600080fd5b6103c1610b8a565b604051808273ffffffffffffffffffffffffffffffffffffffff1673ffffffffffffffffffffffffffffffffffffffff16815260200191505060405180910390f35b341561040e57600080fd5b610416610bb0565b005b341561042357600080fd5b61042b610c70565b6040518082815260200191505060405180910390f35b341561044c57600080fd5b610454610c7d565b60405180806020018781526020018681526020018581526020018415151515815260200183151515158152602001828103825288818151815260200191508051906020019080838360005b838110156104ba57808201518184015260208101905061049f565b50505050905090810190601f1680156104e75780820380516001836020036101000a031916815260200191505b5097505050505050505060405180910390f35b61051b60048080359060200190820180359060200191909192905050610d72565b604051808215151515815260200191505060405180910390f35b61053d611115565b600080600080600080600360029054906101000a900473ffffffffffffffffffffffffffffffffffffffff1673ffffffffffffffffffffffffffffffffffffffff163373ffffffffffffffffffffffffffffffffffffffff161415156105a257600080fd5b6105aa610fb8565b95506105b4610c70565b945060019350600190505b85811115156106e257600085828115156105d557fe5b0614156105e4578492506105f3565b84818115156105ef57fe5b0692505b60008585830181151561060257fe5b06141561061157849150610622565b8484820181151561061e57fe5b0691505b8087600060038110151561063257fe5b60200201516001830360248110151561064757fe5b6020020181815250508287600160038110151561066057fe5b60200201516001830360248110151561067557fe5b6020020181815250508187600260038110151561068e57fe5b6020020151600183036024811015156106a357fe5b602002018181525050600085828115156106b957fe5b061480156106c75750600181115b156106d55783806001019450505b80806001019150506105bf565b86965050505050505090565b600360029054906101000a900473ffffffffffffffffffffffffffffffffffffffff1673ffffffffffffffffffffffffffffffffffffffff163373ffffffffffffffffffffffffffffffffffffffff16141561077f57600360029054906101000a900473ffffffffffffffffffffffffffffffffffffffff1673ffffffffffffffffffffffffffffffffffffffff16ff5b565b600080600080600460008681526020019081526020016000206000015460046000878152602001908152602001600020600101546004600088815260200190815260200160002060020154600460008981526020019081526020016000206003015493509350935093509193509193565b60006107fc611144565b600560008473ffffffffffffffffffffffffffffffffffffffff1673ffffffffffffffffffffffffffffffffffffffff16815260200190815260200160002060000154600560008573ffffffffffffffffffffffffffffffffffffffff1673ffffffffffffffffffffffffffffffffffffffff168152602001908152602001600020600101808054600181600116156101000203166002900480601f0160208091040260200160405190810160405280929190818152602001828054600181600116156101000203166002900480156109165780601f106108eb57610100808354040283529160200191610916565b820191906000526020600020905b8154815290600101906020018083116108f957829003601f168201915b5050505050905091509150915091565b6000610930611144565b6006600084815260200190815260200160002060009054906101000a900473ffffffffffffffffffffffffffffffffffffffff16915081600560008473ffffffffffffffffffffffffffffffffffffffff1673ffffffffffffffffffffffffffffffffffffffff168152602001908152602001600020600101808054600181600116156101000203166002900480601f016020809104026020016040519081016040528092919081815260200182805460018160011615610100020316600290048015610a3e5780601f10610a1357610100808354040283529160200191610a3e565b820191906000526020600020905b815481529060010190602001808311610a2157829003601f168201915b5050505050905091509150915091565b6000600360029054906101000a900473ffffffffffffffffffffffffffffffffffffffff1673ffffffffffffffffffffffffffffffffffffffff163373ffffffffffffffffffffffffffffffffffffffff16141515610aac57600080fd5b600460008781526020019081526020016000209050848160000181905550838160010181905550828160020181905550818160030181905550505050505050565b600360029054906101000a900473ffffffffffffffffffffffffffffffffffffffff1673ffffffffffffffffffffffffffffffffffffffff163373ffffffffffffffffffffffffffffffffffffffff16141515610b4957600080fd5b6001600360006101000a81548160ff0219169083151502179055508360008190555082600181905550818160029190610b83929190611158565b5050505050565b600360029054906101000a900473ffffffffffffffffffffffffffffffffffffffff1681565b600360029054906101000a900473ffffffffffffffffffffffffffffffffffffffff1673ffffffffffffffffffffffffffffffffffffffff163373ffffffffffffffffffffffffffffffffffffffff16141515610c0c57600080fd5b6000600360006101000a81548160ff0219169083151502179055506001600360016101000a81548160ff0219169083151502179055507f1b55ba3aa851a46be3b365aee5b5c140edd620d578922f3e8466d2cbd96f954b60405160405180910390a1565b6000600780549050905090565b610c85611144565b600080600080600080610c96610c70565b9050600260005460015483600360009054906101000a900460ff16600360019054906101000a900460ff16858054600181600116156101000203166002900480601f016020809104026020016040519081016040528092919081815260200182805460018160011615610100020316600290048015610d565780601f10610d2b57610100808354040283529160200191610d56565b820191906000526020600020905b815481529060010190602001808311610d3957829003601f168201915b5050505050955096509650965096509650965050909192939495565b6000600360029054906101000a900473ffffffffffffffffffffffffffffffffffffffff1673ffffffffffffffffffffffffffffffffffffffff163373ffffffffffffffffffffffffffffffffffffffff1614151515610dd157600080fd5b6001600360006101000a81548160ff02191690831515021790551515610df657600080fd5b600154610e01610c70565b101515610e46577fa13de98824a467bc63f2dc9f0b3d82986798ea1074637a08dcc1bb22f2d628a56001546040518082815260200191505060405180910390a1600080fd5b600054341415610e9757610e8b83838080601f016020809104026020016040519081016040528093929190818152602001838380828437820191505050505050610fe2565b60019050809050610fb2565b600054341015610ee1577f4c4e635ca3f567e18560e4c6c2d3e2ff2faf36a078fc0b6efaeb82658057a73734600054036040518082815260200191505060405180910390a1600080fd5b600054341115610fb1573373ffffffffffffffffffffffffffffffffffffffff166108fc60005434039081150290604051600060405180830381858888f193505050501515610f2f57600080fd5b7ffe80ce05e5aab40521b1bcd762d2d0d53b93581678b020d05a76beb0ed8a791760005434036040518082815260200191505060405180910390a1610fa583838080601f016020809104026020016040519081016040528093929190818152602001838380828437820191505050505050610fe2565b60019050809050610fb2565b5b92915050565b60006001610fc4610c70565b036002610fcf610c70565b811515610fd857fe5b0402905080905090565b60008060003392506001610ff4610c70565b019150600560008473ffffffffffffffffffffffffffffffffffffffff1673ffffffffffffffffffffffffffffffffffffffff1681526020019081526020016000209050826006600084815260200190815260200160002060006101000a81548173ffffffffffffffffffffffffffffffffffffffff021916908373ffffffffffffffffffffffffffffffffffffffff160217905550818160000181905550838160010190805190602001906110ab9291906111d8565b50600780548060010182816110c09190611258565b9160005260206000209001600085909190916101000a81548173ffffffffffffffffffffffffffffffffffffffff021916908373ffffffffffffffffffffffffffffffffffffffff1602179055505050505050565b610d80604051908101604052806003905b61112e611284565b8152602001906001900390816111265790505090565b602060405190810160405280600081525090565b828054600181600116156101000203166002900490600052602060002090601f016020900481019282601f1061119957803560ff19168380011785556111c7565b828001600101855582156111c7579182015b828111156111c65782358255916020019190600101906111ab565b5b5090506111d491906112ad565b5090565b828054600181600116156101000203166002900490600052602060002090601f016020900481019282601f1061121957805160ff1916838001178555611247565b82800160010185558215611247579182015b8281111561124657825182559160200191906001019061122b565b5b50905061125491906112ad565b5090565b81548183558181151161127f5781836000526020600020918201910161127e91906112ad565b5b505050565b610480604051908101604052806024905b60008152602001906001900390816112955790505090565b6112cf91905b808211156112cb5760008160009055506001016112b3565b5090565b905600a165627a7a72305820e1c3f3dc5c59fce5870ce421119c352783e72344b4618d49e5160d14d82ba1e40029",
  "source": "pragma solidity ^0.4.18;\r\n\r\n///@title FIFARumble\r\n///@author Marco Dell'Oso - targens\r\n\r\ncontract FIFARumble {\r\n    uint fee;\r\n    uint maxPlayers;\r\n    string tournamentName;\r\n    bool registrationOpen;\r\n    bool tournamentStarted;\r\n    address public gameMaster;\r\n\r\n    struct Player {\r\n        uint pID;\r\n        string name;\r\n    }\r\n\r\n    struct Encounter {\r\n        uint p1ID;\r\n        uint p2ID;\r\n        uint p1Goals;\r\n        uint p2Goals;\r\n    }\r\n\r\n    mapping (uint=>Encounter) encounters;\r\n    mapping (address=>Player) players;\r\n    mapping (uint=>address) playerIDs;\r\n    address[] playerAccts;\r\n       \r\n    event InsufficientFee(uint missing);\r\n    event FeeToHigh(uint spare);\r\n    event TournamentFull(uint mP);\r\n    event Start(); \r\n    event MatchDecided(Encounter);\r\n   \r\n     ////modifiers////\r\n    modifier gameMasterOnly {\r\n        require(msg.sender == gameMaster);\r\n        _;\r\n    }\r\n\r\n    modifier playerOnly {\r\n        require(msg.sender != gameMaster);\r\n        _;\r\n    }\r\n\r\n    modifier registrationValid {\r\n        require(registrationOpen = true);\r\n        _;\r\n    }\r\n\r\n\r\n    //fee in ETH\r\n    function createTournament(uint _fee, uint _maxPlayers, string _tournamentName) external gameMasterOnly {\r\n        registrationOpen = true;\r\n        fee = _fee;\r\n        maxPlayers = _maxPlayers;\r\n        tournamentName = _tournamentName;\r\n    }\r\n    \r\n    function startTournament() public gameMasterOnly {\r\n        registrationOpen = false;\r\n        tournamentStarted = true;\r\n        emit Start();\r\n    }\r\n\r\n    function getTournament() external view returns (string, uint, uint, uint, bool, bool) {\r\n        uint i = getPlayerCount();\r\n        return (tournamentName, fee, maxPlayers, i, registrationOpen, tournamentStarted);\r\n    }\r\n\r\n    //for details on tournament systems see: https://en.wikipedia.org/wiki/Category:Tournament_systems \r\n    function getRoundRobin() gameMasterOnly view external returns (uint[36][3] gamePlan) {\r\n        uint nOM = getNumberOfMatches();\r\n        uint nOP = getPlayerCount();\r\n        uint modRound = 1;\r\n        uint p1Temp;\r\n        uint p2Temp;\r\n\r\n        for (uint i = 1; i <= nOM; i++) {\r\n  \r\n            if (i % nOP == 0) {\r\n                p1Temp = nOP;\r\n            } else {\r\n                p1Temp = (i % nOP);\r\n            }\r\n        \r\n            if ((i + modRound) % nOP == 0) {\r\n                p2Temp = nOP;\r\n            } else {\r\n                p2Temp = (i + modRound) % nOP;\r\n            }\r\n            \r\n            gamePlan[0][i - 1] = i;\r\n            gamePlan[1][i - 1] = p1Temp;\r\n            gamePlan[2][i - 1] = p2Temp;           \r\n\r\n            if (i % nOP == 0 && i > 1) {\r\n                modRound ++;\r\n            }\r\n        }\r\n        return gamePlan;\r\n    }   \r\n\r\n    function getNumberOfMatches() internal view returns(uint numberOfMatches) {\r\n        numberOfMatches = getPlayerCount() / 2 * (getPlayerCount() - 1);\r\n        return numberOfMatches;\r\n    }\r\n\r\n    function decideMatch(uint _matchID, uint _p1, uint _p2, uint _p1Goals, uint _p2Goals) gameMasterOnly external {\r\n\r\n        Encounter storage en = encounters[_matchID];\r\n\r\n        en.p1ID = _p1;\r\n        en.p2ID = _p2;\r\n        en.p1Goals = _p1Goals;\r\n        en.p2Goals = _p2Goals;\r\n\r\n    }\r\n    ////player functions////\r\n\r\n    function register(string _playerName) playerOnly registrationValid external payable returns(bool reg) {\r\n\r\n        if (getPlayerCount() >= maxPlayers) {\r\n            emit TournamentFull(maxPlayers);\r\n            revert();\r\n        }\r\n\r\n        if (msg.value == fee) {\r\n            setPlayer(_playerName);\r\n            reg = true;\r\n            return reg;\r\n\r\n        } else if (msg.value < fee) {\r\n            emit InsufficientFee(fee - msg.value);\r\n            revert();\r\n\r\n        } else if (msg.value > fee) {\r\n            msg.sender.transfer(msg.value - fee);\r\n            emit FeeToHigh(msg.value - fee);\r\n            setPlayer(_playerName);\r\n            reg = true;\r\n            return reg;\r\n        }       \r\n    }\r\n\r\n    function setPlayer(string _playerName) internal {\r\n        address tempAddress = msg.sender;\r\n        uint tempID = getPlayerCount() + 1;\r\n        Player storage player = players[tempAddress]; \r\n        playerIDs[tempID] = tempAddress;\r\n\r\n        player.pID = tempID;\r\n        player.name = _playerName;\r\n        playerAccts.push(tempAddress);\r\n    }\r\n\r\n    function getPlayerCount() public constant returns(uint count) {\r\n        return playerAccts.length;\r\n    }\r\n\r\n    function getPlayer(address _playerAddress) view public returns (\r\n        uint pID,\r\n        string name)\r\n        {\r\n\r\n        return (\r\n            players[_playerAddress].pID,\r\n            players[_playerAddress].name);\r\n    }\r\n\r\n    function getPlayerByID(uint _playerID) view public returns (\r\n        address addressP,\r\n        string name)\r\n        {\r\n\r\n        addressP = (playerIDs[_playerID]);\r\n        \r\n        return (\r\n            addressP,\r\n            players[addressP].name);\r\n\r\n    }\r\n\r\n    function getEncounter(uint _matchID) view public returns (\r\n        uint p1ID,\r\n        uint p2ID,\r\n        uint p1Goals,\r\n        uint p2Goals) {\r\n\r\n        return (\r\n            encounters[_matchID].p1ID,\r\n            encounters[_matchID].p2ID,\r\n            encounters[_matchID].p1Goals,\r\n            encounters[_matchID].p2Goals\r\n            );\r\n\r\n    }\r\n\r\n    function FIFARumble() public {\r\n        gameMaster = msg.sender;\r\n    } \r\n\r\n    function() public {\r\n        revert();\r\n    } \r\n    \r\n    function kill() public { \r\n        if (msg.sender == gameMaster) {\r\n            selfdestruct(gameMaster);\r\n        }\r\n    }\r\n}\r\n\r\n\r\n\r\n\r\n\r\n\r\n\r\n\r\n",
  "sourcePath": "C:\\Users\\mdelloso\\Workspace\\FIFA\\contracts\\FIFARumble.sol",
  "compiler": {
    "name": "solc",
    "version": "0.4.21+commit.dfe3193c.Emscripten.clang"
  },
  "schemaVersion": "2.0.0",
  "updatedAt": "2018-04-17T11:07:28.587Z"
}